:020000040800F2
:1000000000500020E5400008B1070008B3070008D1
:10001000B5070008B7070008B9070008000000008E
:10002000000000000000000000000000913E0008F9
:10003000BB07000800000000313F00084B3A0008F1
:100040002D4100082D4100082D4100082D410008D8
:100050002D4100082D4100082D4100082D410008C8
:100060002D4100082D4100082D4100082D410008B8
:100070002D4100082D410008BD070008CD070008EC
:100080002D4100082D4100082D4100082D41000898
:100090002D4100082D4100082D4100082D41000888
:1000A0002D4100082D4100082D4100082D41000878
:1000B0002D4100082D410008DD0700082D410008F2
:1000C0002D4100082D4100082D4100082D41000858
:1000D0002D410008ED0700082D4100082D410008C2
:1000E0002D4100082D4100082D41000800000000AE
:1000F0000000000000000000000000000000000000
:0C01000000000000000000005FF808F1A3
:1001100010B5054C237833B9044B13B10448AFF341
:1001200000800123237010BD10000020000000009B
:10013000A441000808B5034B1BB103490348AFF3C2
:10014000008008BD0000000014000020A441000849
:1001500008B50268034B9A4200D008BD00F0CCFEFF
:10016000FBE700BF0008004072B6FEE700B591B0A3
:100170002822002106A804F00DF800230193029321
:10018000039304930593012206924FF4803307935F
:100190000A9202220D920E934FF4E0130F9306A8D9
:1001A00000F0D2FE80B90F230193022102910023B7
:1001B00003934FF480620492059301A801F0F6F8CE
:1001C00020B911B05DF804FBFFF7CEFFFFF7CCFFBD
:1001D00008B500F07FFEFFF7C9FF00F00FF800F050
:1001E0003DF800F0F3F800F095F800F08BF903F01B
:1001F00039FC00F021F803F047FCFEE782B00A4B1F
:100200009A6942F020029A619A6902F020020092F3
:10021000009A9A6942F004029A619B6903F0040310
:100220000193019B02B070470010024008B5012005
:1002300003F0A4FCFBE7000008B5054A00210548CF
:1002400003F03EFC044B186000F056FA08BD00BFF6
:10025000C84100082D0200082C00002000B583B022
:100260000E4B5A6942F001025A615B6903F00103C7
:100270000193019B002205210E2001F04DFC0E2070
:1002800001F082FC002205210F2001F045FC0F2027
:1002900001F07AFC03B05DF804FB00BF00100240DF
:1002A0000368B3F1804F00D0704782B003F5043388
:1002B000DA6942F00102DA61DB6903F001030193BC
:1002C000019B02B07047000000B587B00023029385
:1002D0000393049305930368B3F1804F02D007B0F2
:1002E0005DF804FB03F504339A6942F004029A6155
:1002F0009B6903F004030193019B0F2302930223E4
:100300000393059302A9024801F04AF9E7E700BF09
:100310000008014000B58BB00023089309930193B6
:1003200002930393049305930693079326484FF093
:100330008042026047224260836044F61F62C260CE
:1003400003618023836100F0C1FC58BB0023089344
:10035000099308A91C4800F085FD30BB6023019378
:10036000002202920392059201A9174800F00CFDA9
:10037000F0B904220DEB0201134800F005FDD0B9DD
:10038000082201A9104800F0FFFCB8B90C2201A90D
:100390000D4800F0F9FCA0B90B48FFF795FF0BB032
:1003A0005DF804FBFFF7E0FED0E7FFF7DDFED5E7E1
:1003B000FFF7DAFEDDE7FFF7D7FEE1E7FFF7D4FE50
:1003C000E4E7FFF7D1FEE7E73000002008B50D486D
:1003D0000D4B03604FF46123436000238360C360CF
:1003E00003610C2242618361C36101F093FC30B967
:1003F000044B1A68D36843F01003D36008BDFFF7BD
:10040000B3FEF5E7000100200038014070B586B06A
:10041000002302930393049305930268334B9A429B
:1004200001D006B070BD044603F558439A6942F402
:1004300080429A619A6902F480420092009A9A6915
:1004400042F004029A619B6903F004030193019B4B
:100450004FF4007302930223039303230593244E66
:1004600002A9304601F09CF84FF480630293002506
:100470000395049502A9304601F092F81D481E4BE1
:100480000360456085608023C3600561456120236A
:1004900083614FF48053C36101F0AAF900BB154B8F
:1004A000E3635C621548164B03601023436000232E
:1004B00083608022C2600361436183614FF4805393
:1004C000C36101F095F970B90C4BA3635C62002223
:1004D0000521252001F020FB252001F055FBA0E798
:1004E000FFF742FEDBE7FFF73FFEEDE70038014094
:1004F000000801407800002058000240BC000020A5
:100500004400024008B50748074B036004234360DA
:1005100040F27123836001F0ECFE00B908BDFFF7E3
:1005200023FEFBE74801002000300040F9B110B481
:1005300004468C46F0B100224FF6FF7010E04000F8
:1005400080B20133DBB2072B09D810F4004FF6D08C
:10055000400080B280F4815080F00100F1E7013268
:10056000624508D2A35C80EA03200023EBE74FF644
:10057000FF707047002010BC70470000014B002244
:100580001A8070475402002070B582B00446C678C5
:10059000331DC55C731DC35C45EA0325B11C0230E5
:1005A000FFF7C4FF854205D00F4A1368013313607B
:1005B00002B070BDA378012BFAD1042EF8D960687F
:1005C0000090237A8DF80430084B18680028EFD08B
:1005D00000231A46694602F061F80128E8D0044A6F
:1005E000136801331360E3E7600300206803002011
:1005F0006403002008B5204B1B88CBB1012B20D011
:10060000FF2B2ED85A1C92B21B490A801B49C85492
:10061000032A0FD9CB78D91DF92B25D88A4209D1C5
:100620004B1E164AD35C0D2B21D0FFF7A7FF01E02C
:10063000AA2800D008BD591C0F4A11800F4AD05477
:10064000F8E7552804D0AA2808D10C4B1870F1E718
:10065000591C094A1180094AD054EBE7FFF78EFF75
:10066000E8E7FFF78BFFE5E7FFF788FFE2E71046D3
:10067000FFF78AFFD9E700BF540200205401002091
:1006800010B50B4B1C88A4B20A4B1B88A3420ED09A
:10069000094AD05CFFF7AEFF064A138801339BB2CC
:1006A0001380FF2BF0D9134600221A80ECE710BD0F
:1006B0005A030020580300205802002008B54FF4C8
:1006C00080720B490B4801F001FE70B9094BDB6BDE
:1006D0001A68136823F0040313604FF0FF31012000
:1006E00002F0E6FEFFF7CCFFF7E7FFF73DFDEDE791
:1006F000580200200001002000B583B0134B1B6896
:100700002BB1134B1B68A3B103B05DF804FB0022AF
:100710000521082001F09EFF0C4B18600028F0D145
:100720004FF0500383F31188BFF36F8FBFF34F8FE8
:10073000FEE7074B01930223009300234FF48072DE
:100740000449054802F085FBDEE700BF680300208E
:100750005C030020EC410008BD06000800B583B032
:10076000002301930F4BDB6BC3B11B685B68C3F5C0
:1007700080739BB20C4A13800C4B186870B101A9AE
:1007800002F0D2FE019B4BB14FF0E0234FF08052BC
:10079000C3F8042DBFF34F8FBFF36F8F03B05DF825
:1007A00004FB00BF000100205A0300205C0300206E
:1007B000FEE7FEE7FEE7FEE7FEE7704708B5024802
:1007C00001F0F6F808BD00BFBC00002008B50248E3
:1007D00001F0EEF808BD00BF7800002008B502481F
:1007E00000F056F908BD00BF6C03002000B583B0CF
:1007F0000A4B1B681A6812F0100F05D1074801F068
:1008000073FB03B05DF804FB002201921A680192A9
:100810005B680193019BFFF7A1FFEFE70001002058
:1008200000B583B0114B9A6942F001029A619A694E
:1008300002F001020092009ADA6942F08052DA6115
:10084000DB6903F080530193019B00220F216FF0BD
:10085000010001F061F9064A536823F0E06343F0B8
:100860008063536003B05DF804FB00BF00100240DA
:100870000000014030B589B00446214BDA6942F0EE
:100880000402DA61DB6903F004030193019B02A90E
:1008900003A800F067FE069BCBB900F043FE0346B9
:1008A0001848A0FB03239B0C013B1748174A026022
:1008B00040F2E732C26043600023036183608361DA
:1008C00000F0D8F9054630B1284609B030BD00F037
:1008D00029FE4300E4E70C4800F0A2F80546002892
:1008E000F2D11E2001F050F90F2C01D90125EBE7C0
:1008F000002221461E2001F00FF9054B1C60E3E7A2
:100900000010024083DE1B436C03002000080040FF
:100910000400002070B4036A026A22F0010202623D
:100920004668826922F073020C6844EA020523F0EB
:1009300002028B6813430D4CA04209D00B4CA0421D
:100940000DD0466085614A684263036270BC70479F
:1009500023F00803CA68134323F00403EEE726F4E8
:1009600040764A6932438E691643EAE7002C01401B
:1009700030B4036A026A22F4807202624568C26976
:1009800022F073020C68224323F400738C6843EA5C
:1009900004230F4CA04209D00D4CA0420ED045605C
:1009A000C2614A68C263036230BC704723F40063CB
:1009B000CC6843EA042323F48063EDE725F4405533
:1009C0004C6945EA04158C6945EA0415E7E700BF60
:1009D000002C014030B4036A026A22F480520262A1
:1009E0004468C26922F4E6420D6842EA052223F413
:1009F00000538D6843EA0533074DA84206D0446092
:100A0000C2614A680264036230BC704724F48044C7
:100A10004D6944EA8514F2E7002C0140704700005C
:100A200090F83D30DBB2012B27D1022380F83D3016
:100A30000268D36843F00103D3600368114A93420C
:100A400010D0B3F1804F0DD0A2F59432934209D06B
:100A500002F58062934205D01A6842F001021A60E2
:100A6000002070479A6802F00702062A07D01A6829
:100A700042F001021A6000207047012070470020F8
:100A8000704700BF002C01407047704770477047A7
:100A900070B504460368DE681D6915F0020F10D0BA
:100AA00016F0020F0DD06FF002021A6101230377D6
:100AB00003689B6913F0030F5ED0FFF7E6FF002386
:100AC000237715F0040F12D016F0040F0FD023680F
:100AD0006FF004021A610223237723689B6913F4E1
:100AE000407F4FD02046FFF7D0FF0023237715F03B
:100AF000080F12D016F0080F0FD023686FF008020D
:100B00001A61042323772368DB6913F0030F40D0B5
:100B10002046FFF7BAFF0023237715F0100F12D0FD
:100B200016F0100F0FD023686FF010021A6108231F
:100B300023772368DB6913F4407F31D02046FFF729
:100B4000A4FF0023237715F0010F02D016F0010F48
:100B50002DD115F0800F02D016F0800F2FD115F097
:100B6000400F02D016F0400F31D115F0200F02D007
:100B700016F0200F33D170BDFFF786FF2046FFF738
:100B800085FF9CE72046FFF77FFF2046FFF77EFFAB
:100B9000ABE72046FFF778FF2046FFF777FFBAE77D
:100BA0002046FFF771FF2046FFF770FFC9E7236873
:100BB0006FF001021A612046FFF7CAFAC9E72368FD
:100BC0006FF080021A61204600F083F9C7E72368BE
:100BD0006FF040021A612046FFF759FFC5E723680E
:100BE0006FF020021A61204600F072F9C3E700009E
:100BF00003681F4A90420AD0B0F1804F07D0A2F597
:100C00009432904203D002F58062904203D123F0E7
:100C100070034A681343164A90420AD0B0F1804FDD
:100C200007D0A2F59432904203D002F58062904240
:100C300003D123F44073CA68134323F080034A6945
:100C4000134303608B68C3620B688362084B98424E
:100C50000AD001234361036913F0010F03D0036934
:100C600023F00103036170470B690363F1E700BFE1
:100C7000002C014040B310B5044690F83D30F3B16C
:100C8000022384F83D30214651F8040BFFF7B0FFF2
:100C9000012384F8463084F83E3084F83F3084F8ED
:100CA000403084F8413084F8423084F8433084F88E
:100CB000443084F8453084F83D30002010BD80F881
:100CC0003C30FFF7ABFEDBE70120704740B310B5C7
:100CD000044690F83D30F3B1022384F83D302146BC
:100CE00051F8040BFFF784FF012384F8463084F8A1
:100CF0003E3084F83F3084F8403084F8413084F846
:100D0000423084F8433084F8443084F8453084F825
:100D10003D30002010BD80F83C30FFF7C1FADBE722
:100D20000120704730B4036A026A22F010020262A6
:100D30004468826922F4E6420D6842EA052223F003
:100D400020038D6843EA05130E4DA84209D00D4DCE
:100D5000A8420ED0446082614A688263036230BC5C
:100D6000704723F08003CD6843EA051323F0400366
:100D7000EDE724F440644D6944EA85048D6944EA52
:100D80008504E7E7002C014038B590F83C30012B92
:100D900066D004460D46012380F83C300C2A5AD810
:100DA000DFE802F0075959591B5959593059595917
:100DB00044000068FFF7AEFD2268936943F0080322
:100DC00093612268936923F0040393612268936915
:100DD00029690B43936100203EE00068FFF7A2FF02
:100DE0002268936943F4006393612268936923F452
:100DF0008063936122689369296943EA01239361BF
:100E0000002029E00068FFF7B3FD2268D36943F0B2
:100E10000803D3612268D36923F00403D3612268F5
:100E2000D36929690B43D361002015E00068FFF7FF
:100E3000D1FD2268D36943F40063D3612268D3698A
:100E400023F48063D3612268D369296943EA0123CB
:100E5000D361002000E00120002384F83C3038BD3D
:100E60000220FCE790F83C30012B2CD010B4012379
:100E700080F83C30022380F83D3003685A689C6853
:100E800022F0700C0A6842EA0C025A6003680F4AAA
:100E900093420AD0B3F1804F07D0A2F59432934227
:100EA00003D002F58062934204D124F080044A68A2
:100EB00014439C60012380F83D30002380F83C30CF
:100EC000184610BC70470220704700BF002C01403C
:100ED0007047704708B5074A136843F01003136062
:100EE000032000F007FE0F20FFF7C4FCFFF798FC7B
:100EF000002008BD00200240034A1168034B1B7804
:100F00000B441360704700BFB403002000000020B2
:100F1000014B1868704700BFB403002082B0084B33
:100F20001B68084AA2FB03235B0A00FB03F301933F
:100F300000BF019B5A1E0192002BF9D102B07047ED
:100F400008000020D34D6210002800F0F18170B538
:100F500082B00446036813F0010F2CD0994B5B68F4
:100F600003F00C03042B1DD0964B5B6803F00C03BD
:100F7000082B12D06368B3F5803F41D0002B55D1C8
:100F800003F1804303F504331A6822F480321A60B7
:100F90001A6822F480221A6037E08A4B5B6813F4E7
:100FA000803FE7D0874B1B6813F4003F03D0636892
:100FB000002B00F0BF81236813F0020F75D0814B26
:100FC0005B6813F00C0F5FD07E4B5B6803F00C0383
:100FD000082B54D02369002B00F08A807A4B012221
:100FE0001A60FFF795FF0546764B1B6813F0020F5A
:100FF00075D1FFF78DFF401B0228F5D903209EE134
:10100000704A136843F480331360636843B3FFF797
:101010007FFF05466B4B1B6813F4003FCBD1FFF7F6
:1010200077FF401B6428F5D9032088E1B3F5A02F92
:1010300009D0644B1A6822F480321A601A6822F4CC
:1010400080221A60E1E703F18043A3F53C331A687C
:1010500042F480221A601A6842F480321A60D4E79F
:10106000FFF756FF0546574B1B6813F4003FA2D00D
:10107000FFF74EFF401B6428F5D903205FE1514B79
:101080005B6813F4803FA5D14E4B1B6813F0020F31
:1010900003D02369012B40F04F814A4A136823F0A3
:1010A000F803616943EAC1031360236813F0080F72
:1010B00033D0A369002B5CD0434B0122C3F88024BA
:1010C000FFF726FF05463F4B5B6A13F0020F21D165
:1010D000FFF71EFF401B0228F5D903202FE1394AF4
:1010E000136823F0F803616943EAC1031360DCE786
:1010F000354B00221A60FFF70BFF0546314B1B688A
:1011000013F0020FD1D0FFF703FF401B0228F5D9DF
:10111000032014E10120FFF701FF236813F0040FFF
:1011200000F09680274BDB6913F0805F34D1254BAC
:10113000DA6942F08052DA61DB6903F0805301938F
:10114000019B0125214B1B6813F4807F26D0E368A7
:10115000012B3DD0002B53D103F1804303F5043321
:101160001A6A22F001021A621A6A22F004021A6252
:1011700033E0154B0022C3F88024FFF7C9FE054673
:10118000104B5B6A13F0020FC7D0FFF7C1FE401B84
:101190000228F5D90320D2E00025D3E70B4A1368D3
:1011A00043F480731360FFF7B3FE0646074B1B68DA
:1011B00013F4807FCBD1FFF7ABFE801B6428F5D9F9
:1011C0000320BCE0001002400000424200700040DA
:1011D0005F4A136A43F001031362E36833B3FFF716
:1011E00097FE06465A4B1B6A13F0020F2FD1FFF7EA
:1011F0008FFE801B41F288339842F3D903209EE092
:10120000052B09D0524B1A6A22F001021A621A6A9F
:1012100022F004021A62E0E74D4B1A6A42F004021F
:101220001A621A6A42F001021A62D6E7FFF770FEEC
:101230000646474B1B6A13F0020F08D0FFF768FE03
:10124000801B41F288339842F3D9032077E0E5B957
:10125000E369002B72D03E4A526802F00C02082A61
:1012600056D0022B17D03B4B00221A66FFF750FED8
:101270000446374B1B6813F0007F47D0FFF748FE4A
:10128000001B0228F5D9032059E0314AD36923F025
:101290008053D361DCE72F4B00221A66FFF738FE3C
:1012A00005462B4B1B6813F0007F06D0FFF730FE7E
:1012B000401B0228F5D9032041E0236AB3F5803FA3
:1012C0001AD023494B6823F47413226A606A0243DC
:1012D00013434B601F4B01221A66FFF719FE0446A9
:1012E0001B4B1B6813F0007F0ED1FFF711FE001B94
:1012F0000228F5D9032022E0154A536823F400336D
:10130000A1680B435360DCE7002018E0002016E0E2
:10131000012B16D00E4B5B6803F48031226A914298
:1013200011D103F47013626A93420ED1002006E0DB
:1013300001207047012002E0012000E0002002B0FF
:1013400070BD0120FBE70120F9E70120F7E700BFAE
:1013500000100240000042420F4B5B6803F00C0299
:10136000082A01D00D487047C3F383420C49885CBA
:1013700013F4803F0BD0084B5B68C3F34043094A2A
:10138000D35C064A02FB00F0B0FBF3F07047064B5B
:1013900003FB00F0704700BF0010024000127A000B
:1013A000FC4100080C42000800093D00002800F044
:1013B000A08070B50D460446524B1B6803F007032E
:1013C0008B420BD24F4A136823F007030B43136081
:1013D000136803F007038B4240F08D80236813F0FD
:1013E000020F17D013F0040F04D0474A536843F498
:1013F000E0635360236813F0080F04D0424A536837
:1014000043F460535360404A536823F0F003A168EB
:101410000B435360236813F0010F31D06368012B35
:1014200020D0022B25D0384A126812F0020F64D067
:1014300035494A6822F0030213434B60FFF768FD09
:101440000646314B5B6803F00C036268B3EB820F16
:1014500016D0FFF75DFD801B41F288339842F0D92A
:10146000032045E0284A126812F4003FE0D1012031
:101470003EE0254A126812F0007FD9D1012037E002
:10148000204B1B6803F00703AB420AD91D4A1368BF
:1014900023F007032B431360136803F00703AB42E9
:1014A0002DD1236813F0040F06D0174A536823F494
:1014B000E063E1680B435360236813F0080F07D023
:1014C000114A536823F46053216943EAC10353600E
:1014D000FFF742FF0C4B5B68C3F303130B4AD35C6B
:1014E000D8400B4B18600B4B1868FFF7C3F900206E
:1014F00070BD012070470120FAE70120F8E70120C4
:10150000F6E700BF00200240001002401042000831
:101510000800002004000020014B1868704700BF3D
:101520000800002008B5FFF7F7FF044B5B68C3F322
:101530000223034AD35CD84008BD00BF001002401C
:101540002042000808B5FFF7E7FF044B5B68C3F3D0
:10155000C223034AD35CD84008BD00BF001002403C
:10156000204200080F2303600B4B5A6802F003026D
:1015700042605A6802F0F00282605A6802F4E06247
:10158000C2605B68DB0803F4E0630361034B1B6824
:1015900003F007030B607047001002400020024078
:1015A00070B582B00024A446A6E0804DAA4210D0B7
:1015B00007D97F4DAA420CD005F58035AA4208D044
:1015C00013E0A5F58015AA4203D005F57025AA42BF
:1015D00007D18A68002A58D0012A51D043610824D3
:1015E00003E0A5F58015AA42F3D0BEF1FF0F4ED857
:1015F0000646BEF1FF0F4CD84FEA8C0233680F2528
:10160000954023EA050304FA02F2134333604B6862
:1016100013F0805F6ED0674B9A6942F001029A61C5
:101620009B6903F001030193019B4FEA9C02951C07
:10163000614B53F825600CF003039D000F23AB4072
:1016400026EA03065D4B984229D003F58063984251
:1016500000F08E8003F58063984200F08B8003F5E4
:101660008063984219D004231AE0CC68BDE7CC68A7
:101670000434BAE7CC680834B7E7CC680C34B4E774
:1016800003610824B1E70024AFE70424ADE7061D99
:10169000AFE7ACF108029200B0E7032300E00023BB
:1016A000AB4033430232444D45F822304B6813F4CB
:1016B000801F61D0424A936843EA0E0393604B68EF
:1016C00013F4001F5ED03E4AD36843EA0E03D36092
:1016D0004B6813F4003F5BD0394A536843EA0E036A
:1016E00053604B6813F4803F58D0354A136843EA7F
:1016F0000E0313600CF1010C0A6832FA0CF353D09C
:10170000012303FA0CF302EA030E33EA0202F1D1D9
:101710004A68122A3FF649AF122A3FF666AF01A582
:1017200055F822F0D31500086B160008751600084E
:1017300087160008EB150008EB150008EB150008EC
:10174000EB150008EB150008EB150008EB15000879
:10175000EB150008EB150008EB150008EB15000869
:10176000EB150008EB1500086F1600087B16000843
:10177000012395E7022393E7114A936823EA0E03B6
:1017800093609CE70E4AD36823EA0E03D3609FE779
:101790000B4A536823EA0E035360A2E7084A136812
:1017A00023EA0E031360A5E702B070BD000022100B
:1017B000000031100010024000000140000801400C
:1017C0000004014030B40124056CAC40C56B6C6072
:1017D000046863604368102B05D003689960036850
:1017E000DA6030BC704703689A600368D960F8E734
:1017F00060B310B402460168154B0B441548A0FBBA
:1018000003031B099B001364134BD363022382F869
:101810002130086820F47F5020F03000536894682D
:101820002343D468234314692343546923439469AD
:101830002343D469234303430B60002090630123B7
:1018400082F8213082F8200010BC704701207047D8
:10185000F8FFFDBFCDCCCCCC0000024038B504462B
:1018600090F82000012832D0012084F8200094F85C
:101870002100C0B2012804D0002384F820300220C7
:1018800038BD022084F821000020A0632568286864
:1018900020F0010028602046FFF794FFE36A5BB167
:1018A0002268136843F00E0313602268136843F044
:1018B000010313600020E3E72268136823F00403A8
:1018C00013602268136843F00A031360EDE70220F7
:1018D000D6E790F82130DBB2022B06D004238363D5
:1018E000002380F82030012070470268136823F03D
:1018F0000E0313600268136823F001031360036C86
:10190000C16B012202FA03F34B6080F8212000230F
:1019100080F820301846704708B590F82130DBB2C7
:10192000022B03D004238363012008BD02681368DF
:1019300023F00E0313600268136823F001031360A1
:101940000368194A934214D0143293421FD01432C0
:1019500093421ED0143293421ED0143293421ED0B2
:101960001432934202D04FF0807203E04FF48012A1
:1019700000E001220D4B5A60012380F82130002342
:1019800080F82030436B6BB198470020CDE71022E0
:10199000F0E74FF48072EDE74FF48052EAE74FF43E
:1019A0008032E7E70020C0E7080002400000024064
:1019B00038B5C36B1A6804682568016C04238B4032
:1019C000134235D015F0040F32D0236813F0200FE6
:1019D00003D1236823F0040323600368434A93423E
:1019E00014D01432934218D01432934217D01432C8
:1019F000934217D01432934217D01432934202D03C
:101A00004FF0806203E04FF4800200E00422384B84
:101A10005A60C36A03B1984738BD4022F7E74FF4D4
:101A20008062F4E74FF48042F1E74FF48022EEE762
:101A300002238B4013423CD015F0020F39D02368AB
:101A400013F0200F06D1236823F00A03236001233B
:101A500080F821300368254A934214D0143293420F
:101A60001CD0143293421BD0143293421BD0143238
:101A700093421BD01432934202D04FF0007203E025
:101A80004FF4001200E00222194B5A60002380F844
:101A90002030836A002BBFD09847BDE72022F3E7B0
:101AA0004FF40072F0E74FF40052EDE74FF40032CC
:101AB000EAE7082303FA01F11142ADD015F0080F4F
:101AC000AAD0236823F00E032360026CC16B0123AC
:101AD00003FA02F24A60836380F82130002380F821
:101AE0002030036B002B97D0984795E70800024001
:101AF00000000240074AD36823F4E0631B041B0C78
:101B0000000200F4E060034343F0BF6343F400339A
:101B1000D360704700ED00E000B5194BDB68C3F3FC
:101B20000223C3F1070CBCF1040F28BF4FF0040CD3
:101B300003F1040EBEF1060F18D9033B4FF0FF3E30
:101B40000EFA0CFC21EA0C0199400EFA03F322EA8A
:101B50000303194300280BDB0901C9B200F16040FF
:101B600000F5614080F800135DF804FB0023E5E711
:101B700000F00F000901C9B2024B1954F4E700BF8D
:101B800000ED00E014ED00E0002807DB00F01F028C
:101B9000400901239340024A42F82030704700BFB9
:101BA00000E100E0026802F10C0353E8003F23F07B
:101BB000C0030C3242E800310029F3D1202380F821
:101BC00041307047026802F10C0353E8003F23F4F0
:101BD00090730C3242E800310029F3D1026802F11F
:101BE000140353E8003F23F00103143242E80031AC
:101BF0000029F3D1036B012B05D0202380F842305C
:101C0000002303637047026802F10C0353E8003FAE
:101C100023F010030C3242E800310029F3D1ECE745
:101C200090F84130DBB2212B01D00220704783684D
:101C3000B3F5805F17D0036A5A1C02621A780368F2
:101C40005A60C38C9BB2013B9BB2C3844BB9026800
:101C5000D36823F08003D3600268D36843F0400365
:101C6000D360002070470369002BE4D1036A1B880E
:101C70000268C3F308035360036A02330362E0E7B8
:101C800010B504460268136923F44053C1680B433E
:101C9000136183680269134342691A430168CB6880
:101CA00023F4B05323F00C031343CB600268536951
:101CB00023F4407381690B4353610268134B9A42CA
:101CC00020D0FFF72FFC024602EB820202EB8202D9
:101CD00063689B00B2FBF3F20D48A0FB0231490997
:101CE000642303FB11231B013233A0FB03235B0995
:101CF00003F0F00202EB011203F00F03216813441A
:101D00008B6010BDFFF71EFC0246DDE70038014086
:101D10001F85EB5160B310B5044690F8413013B302
:101D2000242384F841302268D36823F40053D3601D
:101D30002046FFF7A5FF2268136923F4904313613F
:101D40002268536923F02A0353612268D36843F45D
:101D50000053D36000206064202384F8413084F86D
:101D60004230606310BD80F84030FEF74FFBD7E78C
:101D700001207047704708B50168CA6822F0400228
:101D8000CA60202280F84120FFF7F4FF002008BD40
:101D900070477047704710B5446A23685A6994F8D1
:101DA0004130DBB2212B10D023685A6902F0400287
:101DB00094F84230DBB2222B11D0636C43F0100355
:101DC00063642046FFF7E6FF10BD02F08002002AA0
:101DD000EAD00023E3842046FFF7E4FEE4E7002A8C
:101DE000EBD00023E3852046FFF7ECFEE5E708B5DE
:101DF000406A0023C385C384FFF7CCFF08BD70474A
:101E000090F84230DBB2222B69D18368B3F5805F52
:101E10004FD0826AB3F5805F04D0002B56D103699E
:101E2000002B53D103685B681370836A01338362AC
:101E3000C38D9BB2013B9BB2C385002B51D100B532
:101E400083B00268D36823F02003D3600268D368AC
:101E500023F48073D3600268536923F00103536154
:101E6000202380F8423000234363036B012B33D1DE
:101E700000230363026802F10C0353E8003F23F0E0
:101E800010030C3242E800310029F3D103681A68CC
:101E900012F0100F06D0002201921A6801925B68BE
:101EA0000193019B818DFFF7AAFF002003B05DF82D
:101EB00004FB0269002AACD1826A03685B68C3F341
:101EC00008031380836A02338362B1E703685B68A7
:101ED00003F07F031370A8E7FFF75AFFE5E702203E
:101EE000704700207047000030B583B00446026898
:101EF0001368D068516913F00F0505D113F0200F56
:101F000002D010F0200F19D12DB111F0010119D11B
:101F100010F4907F16D1216B01297DD013F0800F32
:101F200003D010F0800F40F0188113F0400F03D061
:101F300010F0400F40F0158103B030BD2046FFF790
:101F40005FFFF9E713F0010F06D010F4807F03D094
:101F5000626C42F00102626413F0040F04D019B104
:101F6000626C42F00202626413F0020F04D019B1F5
:101F7000626C42F00402626413F0080F07D010F0A4
:101F8000200F00D119B1626C42F008026264626CE9
:101F9000002AD1D013F0200F02D010F0200F29D149
:101FA00023685B6903F04003626C12F0080F00D1F4
:101FB00063B32046FFF706FE23685B6913F0400F0A
:101FC00020D0226802F1140353E8003F23F04003BD
:101FD000143242E800310029F3D1E36B73B1634A54
:101FE0005A63E06BFFF798FC0028A5D0E06B436BC9
:101FF0009847A1E72046FFF703FFD1E72046FFF708
:10200000C9FE99E72046FFF7C5FE95E72046FFF792
:10201000C1FE002363648FE713F0100F3FF47EAF1F
:1020200010F0100F3FF47AAF00230193136801936F
:1020300053680193019B536913F0400F51D0E26B39
:1020400013685B689BB2002B3FF476AFA18D994279
:102050007FF672AFE3859369202B37D0226802F1B7
:102060000C0353E8003F23F480730C3242E8003144
:102070000029F3D1226802F1140353E8003F23F052
:102080000103143242E800310029F3D1226802F141
:10209000140353E8003F23F04003143242E80031B8
:1020A0000029F3D1202384F84230002323632268DF
:1020B00002F10C0353E8003F23F010030C3242E816
:1020C00000310029F3D1E06BFFF703FC02236363C7
:1020D000A18DE38D9BB2C91A89B22046FFF78FFE0E
:1020E0002AE7A18DE38D9BB2C91A89B2E38D9BB219
:1020F000002B3FF421AF00293FF41EAF226802F10C
:102100000C0353E8003F23F490730C3242E8003094
:102110000028F3D1226802F1140353E8003F23F0B2
:102120000103143242E800300028F3D1202384F860
:10213000423000232363226802F10C0353E8003F7E
:1021400023F010030C3242E800300028F3D10223C0
:1021500063632046FFF753FEEEE62046FFF760FD7F
:10216000EAE62046FFF707FEE6E600BFEF1D00089F
:1021700008B5406A01234363036B012B02D0FFF7CC
:1021800008FE08BD818D4908FFF739FEF9E708B55B
:102190000346406A1B681B6813F0200F2BD10023F5
:1021A000C385026802F10C0353E8003F23F48073F7
:1021B0000C3242E800310029F3D1026802F1140325
:1021C00053E8003F23F00103143242E800310029B4
:1021D000F3D1026802F1140353E8003F23F04003F7
:1021E000143242E800310029F3D1202380F8423034
:1021F000036B012B07D000234363036B012B0FD02C
:10220000FFF7C6FD08BD026802F10C0353E8003F6A
:1022100023F010030C3242E800310029F3D1EAE741
:10222000818DFFF7ECFDEDE730B583B00446134632
:102230008162828500254564222280F84220C26B9B
:102240001F489062E26B1F48D062E26B1E48106329
:10225000E26B556320680A46011DE06BFFF7FEFA4A
:10226000019523681A6801925B680193019B2369B9
:102270005BB1226802F10C0353E8003F43F4807322
:102280000C3242E800310029F3D1226802F1140334
:1022900053E8003F43F00103143242E800310029C3
:1022A000F3D1226802F1140353E8003F43F04003E6
:1022B000143242E800310029F3D1002003B030BDD0
:1022C0008F21000871210008971D000808B590F8BB
:1022D0004230DBB2202B08D149B10AB9012008BD38
:1022E00000230363FFF7A0FFF9E70220F7E70120CF
:1022F000F5E750B338B5044603684CF6CC421A6093
:10230000036845F255521A60036842685A600368D0
:1023100082689A60FEF7FCFD05462368DA6812F0D1
:10232000030F0DD0FEF7F4FD401B41F23C33984201
:10233000F3D92368DB6813F0030FEED0032003E02A
:102340004AF6AA221A60002038BD01207047704763
:1023500000F1080343604FF0FF328260C360036105
:1023600000230360704700230361704743684B609C
:102370009A688A605160996008610368013303605C
:10238000704730B40D68B5F1FF3F11D000F108037C
:102390001C465B681A68AA42FAD963684B60996068
:1023A0008C606160086103680133036030BC704772
:1023B0000469F2E70369416882688A604168516094
:1023C0005A68824206D0002202611A68013A1A60F5
:1023D0001868704782685A60F5E710B5044601F046
:1023E00069FDA26BE36B9A4204D0002401F084FDE6
:1023F000204610BD0124F9E710B5044601F05AFD4E
:10240000A36B23B9012401F077FD204610BD002401
:10241000F9E770B504461546866B026C5AB9036835
:102420001BB100200136A66370BD806800F0F8FF84
:102430000023A360F6E76DB9406801F09DFE226CB1
:10244000636813446360A268934219D3236863608E
:102450002846E7E7C06801F08FFE226C5142E3682E
:102460009B1AE3602268934202D2A3680B44E360A4
:10247000022D01D00020D5E726B1013E0020D1E792
:102480002846CFE70020CDE708B50346026C62B1CD
:102490000846D9681144D960D3F808C0614501D312
:1024A0001968D960D96801F067FE08BD38B50546DE
:1024B00001F000FD95F8454064B201E0013C64B2D2
:1024C000002C0ADD6B6A43B105F1240000F0FEFE2A
:1024D0000028F3D000F08EFFF0E7FF2385F84530A9
:1024E00001F00AFD01F0E6FC95F8444064B201E019
:1024F000013C64B2002C0ADD2B6943B105F11000E8
:1025000000F0E4FE0028F3D000F074FFF0E7FF23B2
:1025100085F8443001F0F0FC38BD38B5E0B10D4627
:10252000044601F0C7FC2368E26B216C01FB02301A
:10253000A0600020A0636360013A02FB0133E36006
:10254000FF2384F8443084F84530FDB9236963B92A
:1025500001F0D2FC012038BD4FF0500383F3118805
:10256000BFF36F8FBFF34F8FFEE704F1100000F051
:10257000ADFE0028ECD04FF0E0234FF08052C3F8BE
:10258000042DBFF34F8FBFF36F8FE1E704F110000D
:10259000FFF7DEFE04F12400FFF7DAFED8E738B5D6
:1025A0001D46049C0B4649B92460E0632364012165
:1025B0002046FFF7B2FF84F84C5038BD2260F4E7A4
:1025C00040B94FF0500383F31188BFF36F8FBFF30F
:1025D0004F8FFEE710B584B01C46844653B192B1CC
:1025E00089B94FF0500383F31188BFF36F8FBFF3A6
:1025F0004F8FFEE74FF0500383F31188BFF36F8FC7
:10260000BFF34F8FFEE76AB150230393039B502B18
:1026100013D04FF0500383F31188BFF36F8FBFF3D4
:102620004F8FFEE70029EFD04FF0500383F311885E
:10263000BFF36F8FBFF34F8FFEE7039B012384F837
:10264000463000949DF818306046FFF7A8FF2046FA
:1026500004B010BD40B94FF0500383F31188BFF3AD
:102660006F8FBFF34F8FFEE7F0B583B00D46144672
:10267000064601FB00F0503001F008FB074650B160
:10268000002380F846300090234600F1500229468E
:102690003046FFF784FF384603B0F0BDF0B585B093
:1026A000019288B10F461D460446B1B1022D20D1DA
:1026B000E36B012B1DD04FF0500383F31188BFF360
:1026C0006F8FBFF34F8FFEE74FF0500383F31188F6
:1026D000BFF36F8FBFF34F8FFEE7036C002BE5D086
:1026E0004FF0500383F31188BFF36F8FBFF34F8F09
:1026F000FEE700F085FE064658B9019B002B48D046
:102700004FF0500383F31188BFF36F8FBFF34F8FE8
:10271000FEE700263DE02A4639462046FFF779FECF
:10272000636A7BB948B14FF0E0234FF08052C3F8A1
:10273000042DBFF34F8FBFF36F8F01F0DDFB01203E
:1027400005B0F0BD04F1240000F0C0FD0028F4D075
:102750004FF0E0234FF08052C3F8042DBFF34F8FAA
:10276000BFF36F8FE9E701F0C7FB0020E8E702A89D
:1027700000F0F2FD012619E0002384F8443021E046
:10278000002384F8453023E02046FFF78FFE00F059
:102790007DFC01F08FFBA26BE36B9A42BBD3022D51
:1027A000B9D0019B002BDED0002EE0D001F0A4FBBD
:1027B00000F0D2FB01F07EFB94F8442052B2B2F15B
:1027C000FF3FD9D094F8452052B2B2F1FF3FD7D0A5
:1027D00001F092FB01A902A800F0CAFDD8B9204679
:1027E000FFF7FBFD0028CFD0019904F1100000F0A5
:1027F00039FD2046FFF75AFE00F048FC0028C8D1FA
:102800004FF0E0234FF08052C3F8042DBFF34F8FF9
:10281000BFF36F8FBDE72046FFF748FE00F036FCA0
:1028200000208DE72DE9F84390B10F4616461C466F
:102830000546B1B1022C20D1EB6B012B1DD04FF01E
:10284000500383F31188BFF36F8FBFF34F8FFEE701
:102850004FF0500383F31188BFF36F8FBFF34F8F97
:10286000FEE7036C002BE5D04FF0500383F3118893
:10287000BFF36F8FBFF34F8FFEE701F005FCEFF35F
:1028800011894FF0500383F31188BFF36F8FBFF3AB
:102890004F8FAA6BEB6B9A4206D3022C04D0002018
:1028A00089F31188BDE8F88395F845804FFA88F8D8
:1028B000AB6B224639462846FFF7ABFDB8F1FF3F28
:1028C00006D008F101035BB285F845300120E7E747
:1028D0006B6A0BB90120E3E705F1240000F0F6FC78
:1028E00018B126B101203060DAE70120D8E70120D5
:1028F000D6E7F0B585B0019290B10F460446C1B15C
:1029000000F07EFD064600BB019B002B5ED04FF021
:10291000500383F31188BFF36F8FBFF34F8FFEE730
:102920004FF0500383F31188BFF36F8FBFF34F8FC6
:10293000FEE7036C002BE3D04FF0500383F31188C4
:10294000BFF36F8FBFF34F8FFEE700263EE039469F
:102950002046FFF799FD013DA563236923B901F0E6
:10296000CBFA012005B0F0BD04F1100000F0AEFC80
:102970000028F4D04FF0E0234FF08052C3F8042D2C
:10298000BFF34F8FBFF36F8FE9E701F0B5FA002077
:10299000E8E702A800F0E0FC012621E0002384F82B
:1029A000443029E0002384F845302BE02046FFF72F
:1029B0007DFD00F06BFB09E02046FFF777FD00F09E
:1029C00065FB2046FFF718FD00283FD101F072FAA1
:1029D000A56B002DBBD1019B002BD6D0002ED8D0EB
:1029E00001F08AFA00F0B8FA01F064FA94F8443081
:1029F0005BB2B3F1FF3FD1D094F845305BB2B3F195
:102A0000FF3FCFD001F078FA01A902A800F0B0FC96
:102A10000028D1D12046FFF7EFFC0028C6D001994D
:102A200004F1240000F01EFC2046FFF73FFD00F0FB
:102A30002DFB0028CAD14FF0E0234FF08052C3F89D
:102A4000042DBFF34F8FBFF36F8FBFE7002089E7DF
:102A50000023072B0CD8074A52F833200AB1013360
:102A6000F7E7044A42F8331002EBC303586070479B
:102A7000704700BFB803002070B504460D461646E7
:102A800001F018FA94F844305BB2B3F1FF3F0DD077
:102A900094F845305BB2B3F1FF3F0BD001F02CFA54
:102AA000A36B5BB12046FFF701FD70BD002384F8E6
:102AB0004430EDE7002384F84530EFE732462946FD
:102AC00004F1240000F0E6FBECE70000084B1B6873
:102AD0001B6823B9074B4FF0FF321A607047044B55
:102AE0001B68DB68DB685A68024B1A60704700BFDE
:102AF000FC030020A40800202DE9F04780460D4685
:102B000017469946089EDDF824A00A9C9200A5214C
:102B1000206B01F03FFB236B07F18042013A03EB8E
:102B2000820727F00707B5B34FF0000CBCF10F0F79
:102B30000BD815F80C2004EB0C0383F8342015F89F
:102B40000C3013B10CF1010CF0E7002384F8433092
:102B5000372E00D93726E662E66400252565201D5C
:102B6000FFF701FC04F11800FFF7FDFB2461C6F13B
:102B70003806A6616462656584F858504A46414645
:102B8000384601F06FF92060BAF1000F01D0CAF8A1
:102B90000040BDE8F087002384F83430D8E7000017
:102BA00038B5002407E004EB840293000E48184473
:102BB000FFF7CEFB0134372CF5D90C4D2846FFF733
:102BC000C7FB0B4C2046FFF7C3FB0A48FFF7C0FBCF
:102BD0000948FFF7BDFB0948FFF7BAFB084B1D602A
:102BE000084B1C6038BD00BF04040020780800209A
:102BF0008C080020B0080020DC080020C808002055
:102C0000FC0300200004002010B5044601F052F936
:102C1000224A136801331360214B1B685BB1214BBF
:102C20001B686BB91E4B1B68DA6AE36A9A4207D8C5
:102C30001B4B1C6004E01A4B1C601368012B29D04D
:102C4000194A1368013313606364E06A174B1B6809
:102C5000984201D9154B186000EB8000211D144BE0
:102C600003EB8000FFF782FB01F046F90D4B1B6878
:102C70007BB10B4B1B68DA6AE36A9A4209D24FF0C8
:102C8000E0234FF08052C3F8042DBFF34F8FBFF302
:102C90006F8F10BDFFF784FFD2E700BF64080020EC
:102CA000F8030020C40800207008002074080020E9
:102CB0000404002010B5044690F8593063B1012B8C
:102CC00011D0022B0ED04FF0500383F31188BFF3C5
:102CD0006F8FBFF34F8FFEE7006B01F055F8204672
:102CE00001F052F810BD01F04FF8FBE70F4B1B68E5
:102CF000D3B110B501F0DEF80D4BDB68DC68201DA8
:102D0000FFF758FB0B4A1368013B1360074A13682F
:102D1000013B136001F0F0F82046FFF7CBFF034BB7
:102D20001B68002BE6D110BD704700BF680800206B
:102D3000DC0800206408002008B5FFF7D7FF074B28
:102D40001B68012BF9D94FF0E0234FF08052C3F8F4
:102D5000042DBFF34F8FBFF36F8FEEE70404002005
:102D600070B504460D46174B1E68174B18680430A3
:102D7000FFF720FBB4F1FF3F0DD03444124B1B682A
:102D80005C60A64210D9114B18680F4B19680431CA
:102D9000FFF7F7FA70BD002DEFD00B4B1968043127
:102DA0000B48FFF7E3FAF5E70A4B1868064B19687A
:102DB0000431FFF7E6FA084B1B68A342EAD9064B39
:102DC0001C60E7E7F0080020F80300200004002062
:102DD000C8080020FC030020A408002030B587B0FC
:102DE0000B9C7CB10C9DB5B15C250495049D5C2DBC
:102DF0001AD04FF0500383F31188BFF36F8FBFF3E6
:102E00004F8FFEE74FF0500383F31188BFF36F8FAE
:102E1000BFF34F8FFEE74FF0500383F31188BFF3EA
:102E20006F8FBFF34F8FFEE7049D0C9D2C63022430
:102E300085F8594000240394029505AC01940A9C3E
:102E40000094FFF759FE0C98FFF7DEFE059807B0D7
:102E500030BD2DE9F04385B00746884614461E462E
:102E6000900000F013FF00B381465C2000F00EFFDD
:102E70000546B0B1C0F83090E5B1002385F859306F
:102E8000039302950D9B01930C9B009333462246BE
:102E900041463846FFF730FE2846FFF7B5FE0120D1
:102EA00005E0484600F070FFE6E74FF0FF3005B060
:102EB000BDE8F0834FF0FF30F9E7000010B588B0AF
:102EC00000240594069407AA06A905A800F064FE4C
:102ED000059B0293069B019300942346079A184989
:102EE0001848FFF77BFF184B186040B100F0F0FB6B
:102EF000012806D0B0F1FF3F18D008B010BD002067
:102F0000F6E74FF0500383F31188BFF36F8FBFF3E1
:102F10004F8F0E4B4FF0FF321A600D4B01221A609B
:102F20000C4B00221A6001F04FF8E6E74FF0500317
:102F300083F31188BFF36F8FBFF34F8FFEE700BF9E
:102F400028420008392D0008A0080020A40800200D
:102F5000C4080020F0080020024A136801331360FF
:102F6000704700BF6C080020014B1868704700BF15
:102F7000F0080020F8B53A4B1B68002B69D1394B9B
:102F80001D6801351D60C5B9374B1B681B6843B10F
:102F90004FF0500383F31188BFF36F8FBFF34F8F50
:102FA000FEE7314A1168314B186810601960304AE9
:102FB000136801331360FFF789FD2E4B1B68AB428A
:102FC0003DD900272C4B1B68DB6A03EB83039A0077
:102FD0002A4B9B58012B00D90127294B1B68002B3A
:102FE0003CD001273AE001271F4B1B681B6843B305
:102FF0001D4B1B68DB68DC6863689D4226D3261D79
:103000003046FFF7D7F9A36A1BB104F11800FFF7A8
:10301000D1F9E36A1B4A1268934201D9194A136035
:1030200003EB83039A00314614481044FFF79EF9DE
:10303000E26A114B1B68DB6A9A42D4D2D4E70027BC
:10304000D2E70C4B4FF0FF321A60BBE7094A13601E
:10305000B8E70D4A13680133136000273846F8BDFE
:103060006C080020F0080020FC0300200004002071
:10307000A8080020A4080020F80300200404002071
:10308000F408002074080020AC08002038B5354B47
:103090001B6843B94FF0500383F31188BFF36F8F60
:1030A000BFF34F8FFEE700F005FF2E4B1A68013A81
:1030B0001A601B68002B4FD12B4B1B680BB90024E7
:1030C0004BE00024294B1B681BB3284BDB68DC68F2
:1030D00004F11800FFF76EF9251D2846FFF76AF97D
:1030E000E06A234B1B68984201D9214B186000EB22
:1030F000800029461F4B03EB8000FFF737F9E26A97
:103100001D4B1B68DB6A9A42DCD31C4B01221A6000
:10311000D8E70CB1FFF7DAFC194B1C6884B9174BE0
:103120001C68D4B14FF0E0234FF08052C3F8042D57
:10313000BFF34F8FBFF36F8F01240EE0013C07D028
:10314000FFF718FF0028F9D00C4B01221A60F5E7B1
:103150000B4B00221A60E2E7002400F0CDFE20466F
:1031600038BD00BF6C08002064080020B0080020B3
:103170007408002004040020F8030020F408002054
:10318000AC08002010B5A8B10446104B1B6843B131
:103190004FF0500383F31188BFF36F8FBFF34F8F4E
:1031A000FEE7FFF7D9FE00212046FFF7D9FDFFF724
:1031B0006DFF48B94FF0E0234FF08052C3F8042D63
:1031C000BFF34F8FBFF36F8F10BD00BF6C0800209F
:1031D0001F4B1B681BB11F4B01221A6070471D4B10
:1031E00000221A601C4B1B6803EB83018A001B49F9
:1031F0008A585AB90BB1013BF6E74FF0500383F3FD
:103200001188BFF36F8FBFF34F8FFEE703EB83008F
:1032100082000A4450684068506003EB830C4FEA18
:103220008C020832114488420BD003EB83029100D8
:103230000A4A0A445268D168094A1160064A136072
:103240007047406862469100044A0A445060ECE7C7
:103250006C080020F40800207408002004040020FA
:10326000F803002058B110B50C46094A116818310E
:10327000FFF787F801212046FFF772FD10BD4FF0E0
:10328000500383F31188BFF36F8FBFF34F8FFEE7B7
:10329000F803002038B570B10D4614460A4A11688B
:1032A0001831FFF763F80CB14FF0FF35214628467F
:1032B000FFF756FD38BD4FF0500383F31188BFF37D
:1032C0006F8FBFF34F8FFEE7F803002038B5C36858
:1032D000DC6824B304F118052846FFF76BF8184B97
:1032E0001B682BBB251D2846FFF764F8E06A154BC9
:1032F0001B68984201D9134B186000EB80002946E7
:10330000114B03EB8000FFF731F8E26A0F4B1B68AB
:10331000DB6A9A4211D901200D4B186038BD4FF07D
:10332000500383F31188BFF36F8FBFF34F8FFEE716
:1033300029460848FFF71AF8E7E70020EEE700BF44
:103340006C0800207408002004040020F80300200A
:10335000F4080020B0080020034B1B680360034BF7
:103360001B684360704700BFA8080020F0080020D9
:10337000D8B170B50C46054601B300F09BFD1B4B60
:1033800019686B68C81A2268B2F1FF3F27D0184E3F
:103390003668D5F800C0B44501D08B4224D98242AA
:1033A00015D80023236001241AE04FF0500383F363
:1033B0001188BFF36F8FBFF34F8FFEE74FF05003BD
:1033C00083F31188BFF36F8FBFF34F8FFEE75B1A54
:1033D000134423602846FFF7BFFF002400E00024C9
:1033E00000F08AFD204670BD0124F9E7F0080020B6
:1033F000A8080020014B01221A607047F408002041
:10340000054B1B6833B1054B1B680BB1002070479F
:103410000220704701207047C40800206C0800207B
:1034200000283BD038B504461E4B1B68834208D0A9
:103430004FF0500383F31188BFF36F8FBFF34F8FAB
:10344000FEE7036D43B94FF0500383F31188BFF3D8
:103450006F8FBFF34F8FFEE7013B0365C16AC26CFC
:1034600091421DD00BB1002038BD051D2846FEF746
:10347000A1FFE06CE062C0F13803A3610A4B1B6856
:10348000984201D9084B186000EB80002946074B91
:1034900003EB8000FEF76AFF0120E5E7002070479C
:1034A0000020E1E7F8030020740800200404002055
:1034B00038B505460C4600F0FDFC1A4B1B685B6DE9
:1034C0002BB9184B1B68012283F85820ACB900F0C7
:1034D00013FD00F0EFFC134B1B685C6D24B1DDB1F4
:1034E000104B1B6800225A650E4B1B68002283F8A4
:1034F000582000F001FD204638BD11462046FFF758
:103500002FFC4FF0E0234FF08052C3F8042DBFF39F
:103510004F8FBFF36F8FDAE7024B1B68621E5A654D
:10352000E2E700BFF8030020F8B5D8B10D46044625
:1035300000F0AAFDEFF311864FF0500383F31188DA
:10354000BFF36F8FBFF34F8F94F85830DBB2022276
:1035500084F85820626D01326265012B0BD086F32E
:103560001188F8BD4FF0500383F31188BFF36F8FBC
:10357000BFF34F8FFEE7A36A43B14FF0500383F3CD
:103580001188BFF36F8FBFF34F8FFEE7144B1B689B
:10359000FBB9271D3846FEF70DFFE06A114B1B688B
:1035A000984201D90F4B186000EB800039460E4B52
:1035B00003EB8000FEF7DAFEE26A0C4B1B68DB6A65
:1035C0009A42CCD90DB101232B60094B01221A601C
:1035D000C5E704F118010748FEF7C8FEECE700BF95
:1035E0006C0800207408002004040020F803002068
:1035F000F4080020B0080020064B1A6813682BB9A5
:103600000123036023B9D368186870470023F8E7E3
:1036100000207047F808002008B541600061914221
:103620000CD8D21A83699A4201D3012008BD011D2A
:10363000094B1868FEF7A5FE0020F7E79A4201D271
:10364000994206D2011D054B1868FEF79AFE00202C
:10365000ECE70120EAE700BFFC080020F8080020A2
:1036600030B583B000F026FC114B1B681BB100F095
:1036700043FC03B030BD0F4D2846FEF769FE0E4CEB
:103680002046FEF765FE0D4B1D600D4B1C600023B0
:1036900000930C4B0C4A10210A20FEF791FF044BBB
:1036A00018600028E3D00949FFF7D2F9DFE700BF2F
:1036B0001C0A0020A0090020B4090020F8080020FE
:1036C000FC080020CC09002000090020304200083E
:1036D00010B588B0FFF7C4FF124B1B68CBB10024B4
:1036E0000594069407AA06A905A800F061FA059BAF
:1036F0000293069B0193022300932346079A0A49EB
:103700000A48FFF76BFB0A4B186010B1012008B0A4
:1037100010BD4FF0500383F31188BFF36F8FBFF3D9
:103720004F8FFEE71C0A002038420008353A000897
:10373000200A0020B8B19C4603461848006858B3D8
:1037400000B585B000910192029305291CDCFFF7BA
:1037500057FE022810D000231A4669460F48006819
:10376000FEF79CFF15E04FF0500383F31188BFF381
:103770006F8FBFF34F8FFEE70023069A6946074815
:103780000068FEF78BFF04E0002362466946FFF7FE
:1037900049F805B05DF804FB002070471C0A0020C2
:1037A00070B582B01B4B1B681A6862B3DB681E6879
:1037B000DC68251D2846FEF7FDFD236A2046984754
:1037C00094F8283013F0040FECD0A36933449E42E0
:1037D00007D26360246129460E4B1868FEF7D1FDBD
:1037E000E0E7002100910B4632462046FFF7A2FF9A
:1037F0000028D7D14FF0500383F31188BFF36F8FA8
:10380000BFF34F8FFEE7044A106802490860136057
:1038100002B070BDF8080020FC08002038B505464D
:10382000FFF7A2FB0446074B1B68834205D8002321
:103830002B60044B1C60204638BDFFF7B1FF01230D
:103840002B60F6E7C809002070B582B006460D4629
:1038500017490968C968CC68201DFEF7ABFD94F8CC
:1038600028C01CF0040F08D12CF0010C84F828C0EB
:10387000236A2046984702B070BDA16933462A46A4
:1038800031442046FFF7C8FE0028F1D00021009106
:103890000B4632462046FFF74DFF0028E8D14FF097
:1038A000500383F31188BFF36F8FBFF34F8FFEE791
:1038B000F808002070B582B006460C46FFF74CFBB6
:1038C00001A8FFF7ABFF019B33BB05460CB9B04223
:1038D00019D224B1124A12681268DAB901242246B8
:1038E000711B104B1868FFF7C7F8FFF7CFFBA8B99B
:1038F0004FF0E0234FF08052C3F8042DBFF34F8FF9
:10390000BFF36F8F0AE0FFF7C1FB29463046FFF790
:103910009BFF03E01C46E2E7FFF7B8FB02B070BD77
:10392000FC0800201C0A002010B588B002E0049BAF
:10393000002B0FDA002204A93D4B1868FEF7D9FFCF
:10394000002873D0049B002BF1DA07990698059B99
:103950009847ECE7069C636913B1201DFEF72AFD2A
:1039600003A8FFF75BFF049B092BE3D8DFE803F014
:103970000505053037500505303794F8283043F0F9
:10398000010384F82830059BA169024619442046AA
:10399000FFF742FE0028CDD0236A2046984794F8CE
:1039A000283013F0040FC5D0A269002100910B4606
:1039B000059802442046FFF7BDFE0028BAD14FF01B
:1039C000500383F31188BFF36F8FBFF34F8FFEE770
:1039D00094F8283023F0010384F82830AAE794F8FB
:1039E000283043F0010384F828300599A16131B1F2
:1039F0000346024601442046FFF70EFE9AE74FF0C9
:103A0000500383F31188BFF36F8FBFF34F8FFEE72F
:103A100094F8283013F0020F04D023F0010384F847
:103A2000283087E7204600F0AFF983E708B010BDE3
:103A30001C0A002000B583B001A8FFF7DDFD019945
:103A4000FFF738FFFFF770FFF6E708B54FF0E02308
:103A50001B69FFF7D5FC012800D108BD00F08AFAE8
:103A6000FBE70000EFF305832BB9064B186828B974
:103A700001221A6070476FF0050070474FF0FF3069
:103A8000704700BF800C0020EFF3058373B90A4B29
:103A90001B68012B0DD110B50024084BDC77064BB9
:103AA00002221A60FFF70AFA204610BD6FF00500E7
:103AB00070474FF0FF307047800C002000ED00E0B1
:103AC000F0B587B000240594EFF3058474BB68B3A8
:103AD00022B31568936903B918235C1E372C49D8A3
:103AE000546814F0010F47D156696EB14FEA960C35
:103AF00094682CB1D7685B2F02D9176907B1C6B992
:103B00002CB14FF0FF340EE04FF0800CF0E7D4689A
:103B10008CB9146994B14FF0FF3404E015460024C9
:103B200018234FF0800C012C0AD0ACB1059807B0D7
:103B3000F0BD0124F7E74FF0FF34F4E70024F2E78B
:103B4000146992680292019400930B4662462946DA
:103B5000FFF744F90590E9E705AA019200930B46A7
:103B60001FFA8CF22946FFF774F90128DED00023F2
:103B70000593DBE70020DAE70020D8E708B5EFF38C
:103B8000058333B908B9002008BDFFF7FBFA002010
:103B9000FAE76FF00500F7E7034B0360034B0B6098
:103BA00080231360704700BF240C0020240A0020EB
:103BB000034B0360034B0B604FF48073136070473B
:103BC00084100020840C0020124A12F0070F1ED02F
:103BD000D11D21F00701C1F5805313440A460E4858
:103BE0000260002141601344083B23F007030B48A7
:103BF000036059601960991A51601360084B19608D
:103C0000084B1960084B4FF000421A6070474FF4A0
:103C10008053E4E7E4100020F8200020E0100020AA
:103C2000EC200020E8200020E4200020154B1A465C
:103C30001B688342FBD3516802EB010C844509D019
:103C4000416800EB010C634509D00360904218D035
:103C5000106070474068014451601046F0E710B4AE
:103C6000094C2468A3420AD05B6819444160136878
:103C70001B680360904200D0106010BC7047046065
:103C8000F8E77047F8200020E010002070B50546E6
:103C9000FFF762F9364B1B68A3B1364B1B681D4218
:103CA0004ED135B1083515F0070F02D025F00705C4
:103CB0000835002D46D0304B1B68AB4251D32F4AFC
:103CC000146804E0FFF780FFE7E722461C466368BC
:103CD000AB4202D22368002BF7D1254B1B68A342CD
:103CE00041D0166808362368136063685B1B102B8D
:103CF00010D9601910F0070F08D04FF0500383F36C
:103D00001188BFF36F8FBFF34F8FFEE7436065608D
:103D1000FFF78CFF626818490B689B1A0B60184903
:103D200009688B4201D216490B60124B1B68134382
:103D3000636000232360134A13680133136002E0B9
:103D4000002600E00026FFF7A1F916F0070F0CD0BF
:103D50004FF0500383F31188BFF36F8FBFF34F8F82
:103D6000FEE70026EFE70026EDE7304670BD00BF16
:103D7000E0100020E4200020E8200020F8200020AF
:103D8000EC200020F0200020002834D038B5044674
:103D9000A0F1080550F8043C174A1268134208D1F4
:103DA0004FF0500383F31188BFF36F8FBFF34F8F32
:103DB000FEE750F8081C41B14FF0500383F311881F
:103DC000BFF36F8FBFF34F8FFEE723EA020340F884
:103DD000043CFFF7C1F854F8041C084A13680B446C
:103DE00013602846FFF722FF054A1368013313606A
:103DF000FFF74CF938BD7047E4200020E820002090
:103E0000F420002082B0002301930D4B1B68B3F116
:103E1000FF3F08D04FF0500383F31188BFF36F8F3B
:103E2000BFF34F8FFEE74FF0500383F31188BFF3CA
:103E30006F8FBFF34F8F019B002BFCD002B07047F8
:103E40000C00002006480068006880F3088862B60D
:103E500061B6BFF34F8FBFF36F8F00DF00BF00006D
:103E600008ED00E04FF0807340F8043C21F00101C0
:103E700040F8081C034B40F80C3C40F8202C40381C
:103E8000704700BF053E0008000000000000000071
:103E9000074B19680868B0E8F00F80F30988BFF392
:103EA0006F8F4FF0000080F311884EF00D0E7047B9
:103EB000F80300204FF0500383F31188BFF36F8F96
:103EC000BFF34F8F0B4A136801331360012B00D0EF
:103ED00070474FF0E023D3F8043D13F0FF0FF7D005
:103EE0004FF0500383F31188BFF36F8FBFF34F8FF1
:103EF000FEE700BF0C000020094B1B6843B94FF0E0
:103F0000500383F31188BFF36F8FBFF34F8FFEE72A
:103F1000013B034A13600BB983F31188704700BF5C
:103F20000C00002000000000000000000000000065
:103F3000EFF30980BFF36F8F0D4B1A6820E9F00F84
:103F400010602DE908404FF0500080F31188FFF712
:103F50003FF94FF0000080F31188BDE80840196870
:103F60000868B0E8F00F80F30988BFF36F8F7047DF
:103F7000F803002008B54FF0500383F31188BFF316
:103F80006F8FBFF34F8FFEF7F5FF28B14FF0E0239F
:103F90004FF08052C3F8042D002383F3118808BD2D
:103FA0004FF0E022002313619361054B1B68054924
:103FB000A1FB03139B09013B536107231361704766
:103FC00008000020D34D621010B582B02A4B1A7839
:103FD000D2B20192FF221A701B78DBB28DF8033047
:103FE0009DF8033003F05003244A1370244B07223A
:103FF0001A6009E0224A1368013B13609DF8033000
:104000005B00DBB28DF803309DF8033013F0800FB6
:10401000F0D11B4B1B68032B08D04FF0500383F3E8
:104020001188BFF36F8FBFF34F8FFEE71B02144A57
:10403000136003F4E0631360019BDBB20E4A13705C
:104040004FF0E023D3F8202D42F47002C3F8202D66
:10405000D3F8202D42F07042C3F8202DFFF7A0FFC7
:104060000024084B1C60FFF7EDFEFFF7B1F8FFF7E7
:10407000C9FE204602B010BD00E400E0002100208F
:10408000042100200C000020EFF305830F2B0FD933
:10409000114A9B5CDBB2114A12789A4208D94FF060
:1040A000500383F31188BFF36F8FBFF34F8FFEE789
:1040B0004FF0E023D3F80C3D03F4E063084A1268A4
:1040C000934208D94FF0500383F31188BFF36F8FE9
:1040D000BFF34F8FFEE77047F0E300E000210020C0
:1040E00004210020FEF733F90B480C490C4A002349
:1040F00002E0D458C4500433C4188C42F9D3094A9E
:10410000094C002301E013600432A242FBD300F00B
:104110000FF8FCF75DF87047000000201000002049
:10412000484200081000002008210020FEE700009F
:1041300070B500260C4D0D4C641BA410A64209D18D
:1041400000F030F800260A4D0A4C641BA410A64269
:1041500005D170BD55F8043B98470136EEE755F898
:10416000043B98470136F2E740420008404200080D
:1041700040420008444200080A44914200F1FF33E3
:1041800000D1704710B511F8014B914203F8014F6F
:10419000F9D110BD03460244934200D1704703F8A1
:1041A000011BF9E7F8B500BFF8BC08BC9E46704794
:0C41B000F8B500BFF8BC08BC9E46704784
:1041BC0064656661756C745461736B00BC41000876
:1041CC0000000000000000000000000000000000E3
:1041DC0000020000180000000000000000000000B9
:1041EC005461736B5F554152545F5258000000008C
:1041FC0002030405060708090A0B0C0D0E0F10101C
:10420C000102000000000000000000000102030495
:10421C0006070809000000000102030449444C454C
:10422C0000000000546D725100000000546D7220AB
:04423C005376630052
:04424000350100083C
:04424400110100085C
:10424800010000001000000000127A00AAAAAAAA21
:04000005080040E5CA
:00000001FF
