:020000040800F2
:1000000000500020A55000083115000833150008E5
:1000100035150008371500083915000800000000E4
:10002000000000000000000000000000514E000829
:100030003B15000800000000F14E00080B4A0008C4
:10004000ED500008ED500008ED500008ED5000089C
:10005000ED500008ED500008ED500008ED5000088C
:10006000ED500008ED500008ED500008ED5000087C
:10007000ED500008ED5000083D1500084D15000832
:10008000ED500008ED500008ED500008ED5000085C
:10009000ED500008ED500008ED500008ED5000084C
:1000A000ED500008ED500008ED500008ED5000083C
:1000B000ED500008ED5000085D150008ED500008F7
:1000C000ED500008ED500008ED500008ED5000081C
:1000D000ED5000086D150008ED500008ED500008C7
:1000E000ED500008ED500008ED5000080000000041
:1000F0000000000000000000000000000000000000
:0C01000000000000000000005FF808F1A3
:100110000348044B834202D0034B03B11847704796
:100120001000002010000020000000000548064BD1
:100130001B1AD90F01EBA301491002D0034B03B1E5
:100140001847704710000020100000200000000039
:1001500010B5064C237843B9FFF7DAFF044B13B10F
:100160000448AFF300800123237010BD100000206D
:1001700000000000F050000808B5044B1BB1044912
:100180000448AFF30080BDE80840CFE7000000005E
:1001900014000020F050000870B50F4B0F4DAB421B
:1001A000A3EB050607D00024B61055F8043B013434
:1001B0009847A642F9D804F09BFF094D094B5E1BF6
:1001C000AB424FEAA60606D0002455F8043B0134A2
:1001D0009847A642F9D870BD305200083052000846
:1001E000305200083452000870B5860747D0541EBC
:1001F000002A3ED00346CAB201E0013C39D303F8DD
:10020000012B9D07F9D1032C2CD9CDB205EB052587
:100210000F2C1A4605EB054534D9A4F1100C2CF02F
:100220000F0603F1100EB6444FEA1C1CC2E900553C
:10023000C2E9025510327245F8D10CF1010214F0F6
:100240000C0F03EB021204F00F0C13D0ACF10403FB
:1002500023F003030433134442F8045B9342FBD1BD
:100260000CF003042CB1C9B21C4403F8011BA342D7
:10027000FBD170BD64461346002CF4D1F9E7034668
:100280001446C0E7A446E1E7844641EA000313F0C0
:10029000030349D1403A23D30B6803604B684360A2
:1002A0008B688360CB68C3600B6903614B694361F2
:1002B0008B698361CB69C3610B6A03624B6A4362DA
:1002C0008B6A8362CB6AC3620B6B03634B6B4363C2
:1002D0008B6B8363CB6BC36340304031403ADBD2DE
:1002E00030320BD30B6803604B6843608B688360CC
:1002F000CB68C36010301031103AF3D20C3205D302
:1003000051F8043B40F8043B043AF9D2043208D0D7
:10031000D2071CBF11F8013B00F8013B01D30B8849
:1003200003806046704700BF082A13D38B07B1D003
:1003300010F00303AED0C3F10403D21ADB071CBFD5
:1003400011F8013B00F8013BA4D331F8023B20F83F
:10035000023B9FE7043AD9D3013A11F8013B00F878
:10036000013BF9D20B7803704B7843708B78837024
:100370006046704780F0004002E000BF81F000411D
:1003800042001FBF5FEA410392EA030F7FEA226C3B
:100390007FEA236C6AD04FEA1262D2EB1363C1BFCB
:1003A000D218414048404140B8BF5B42192B88BF3A
:1003B000704710F0004F40F4000020F07F4018BF5D
:1003C000404211F0004F41F4000121F07F4118BF7D
:1003D000494292EA030F3FD0A2F1010241FA03FC25
:1003E00010EB0C00C3F1200301FA03F100F000430D
:1003F00002D5494260EB4000B0F5000F13D3B0F1D5
:10040000807F06D340084FEA310102F10102FE2A43
:1004100051D2B1F1004F40EBC25008BF20F00100B3
:1004200040EA03007047490040EB0000013A28BF52
:10043000B0F5000FEDD2B0FA80FCACF1080CB2EBD5
:100440000C0200FA0CF0AABF00EBC2505242184353
:10045000BCBFD0401843704792F0000F81F40001F8
:1004600006BF80F400000132013BB5E74FEA4103CB
:100470007FEA226C18BF7FEA236C21D092EA030F37
:1004800004D092F0000F08BF0846704790EA010FB1
:100490001CBF0020704712F07F4F04D1400028BFDE
:1004A00040F00040704712F100723CBF00F50000C0
:1004B000704700F0004343F0FE4040F400007047F6
:1004C0007FEA226216BF08467FEA236301464202A2
:1004D00006BF5FEA412390EA010F40F480007047B5
:1004E0004FF0000304E000BF10F0004348BF40425B
:1004F0005FEA000C08BF704743F0964301464FF097
:1005000000001CE050EA010208BF70474FF00003F2
:100510000AE000BF50EA010208BF704711F0004333
:1005200002D5404261EB41015FEA010C02BF844603
:100530000146002043F0B64308BFA3F18053A3F562
:100540000003BCFA8CF2083AA3EBC25310DB01FAA9
:1005500002FC634400FA02FCC2F12002BCF1004F2D
:1005600020FA02F243EB020008BF20F001007047BE
:1005700002F1200201FA02FCC2F1200250EA4C0012
:1005800021FA02F243EB020008BF20EADC70704758
:100590004FF0FF0C1CEAD0521EBF1CEAD15392EA66
:1005A0000C0F93EA0C0F6FD01A4480EA010C400242
:1005B00018BF5FEA41211ED04FF0006343EA50109C
:1005C00043EA5111A0FB01310CF00040B1F5000FDE
:1005D0003EBF490041EAD3715B0040EA010062F18D
:1005E0007F02FD2A1DD8B3F1004F40EBC25008BF77
:1005F00020F00100704790F0000F0CF0004C08BF95
:1006000049024CEA502040EA51207F3AC2BFD2F161
:10061000FF0340EAC250704740F400004FF000036F
:10062000013A5DDC12F1190FDCBF00F000407047A9
:10063000C2F10002410021FA02F1C2F1200200FAE7
:1006400002FC5FEA310040F1000053EA4C0308BFAE
:1006500020EADC70704792F0000F00F0004C02BFFF
:10066000400010F4000F013AF9D040EA0C0093F07A
:10067000000F01F0004C02BF490011F4000F013BD4
:10068000F9D041EA0C018FE70CEAD15392EA0C0F42
:1006900018BF93EA0C0F0AD030F0004C18BF31F0AD
:1006A000004CD8D180EA010000F00040704790F083
:1006B000000F17BF90F0004F084691F0000F91F027
:1006C000004F14D092EA0C0F01D142020FD193EAED
:1006D0000C0F03D14B0218BF084608D180EA010075
:1006E00000F0004040F0FE4040F40000704740F051
:1006F000FE4040F4400070474FF0FF0C1CEAD0521F
:100700001EBF1CEAD15392EA0C0F93EA0C0F69D07A
:10071000A2EB030280EA010C49024FEA402037D0E5
:100720004FF0805343EA111143EA10130CF00040DC
:100730008B4238BF5B0042F17D024FF4000C8B42CC
:1007400024BF5B1A40EA0C00B3EB510F24BFA3EBAC
:10075000510340EA5C00B3EB910F24BFA3EB91037C
:1007600040EA9C00B3EBD10F24BFA3EBD10340EAD6
:10077000DC001B0118BF5FEA1C1CE0D1FD2A3FF61C
:1007800050AF8B4240EBC25008BF20F001007047D1
:100790000CF0004C4CEA50207F32C2BFD2F1FF0374
:1007A00040EAC250704740F400004FF00003013AA5
:1007B00037E792F0000F00F0004C02BF400010F449
:1007C000000F013AF9D040EA0C0093F0000F01F05D
:1007D000004C02BF490011F4000F013BF9D041EA7F
:1007E0000C0195E70CEAD15392EA0C0F08D14202B2
:1007F0007FF47DAF93EA0C0F7FF470AF084676E785
:1008000093EA0C0F04D14B023FF44CAF08466EE75D
:1008100030F0004C18BF31F0004CCAD130F000422B
:100820007FF45CAF31F000437FF43CAF5FE700BF83
:100830004FF0FF3C06E000BF4FF0010C02E000BFAC
:100840004FF0010C4DF804CD4FEA40024FEA41034E
:100850007FEA226C18BF7FEA236C11D001B052EA04
:10086000530C18BF90EA010F58BFB2EB030088BFCA
:10087000C81738BF6FEAE17018BF40F00100704739
:100880007FEA226C02D15FEA402C05D17FEA236C1B
:10089000E4D15FEA412CE1D05DF8040B704700BF62
:1008A000844608466146FFE70FB5FFF7C9FF0028F9
:1008B00048BF10F1000F0FBD4DF808EDFFF7F4FF32
:1008C0000CBF012000205DF808FB00BF4DF808EDCB
:1008D000FFF7EAFF34BF012000205DF808FB00BFEE
:1008E0004DF808EDFFF7E0FF94BF012000205DF810
:1008F00008FB00BF4DF808EDFFF7D2FF94BF0120C1
:1009000000205DF808FB00BF4DF808EDFFF7C8FFB9
:1009100034BF012000205DF808FB00BF4FEA400211
:10092000B2F1FE4F0FD34FF09E03B3EB12620DD91D
:100930004FEA002343F0004310F0004F23FA02F087
:1009400018BF404270474FF00000704712F1610F2E
:1009500001D1420205D110F0004008BF6FF0004005
:1009600070474FF00000704742000ED2B2F1FE4FC8
:100970000BD34FF09E03B3EB126209D44FEA00236E
:1009800043F0004323FA02F070474FF00000704735
:1009900012F1610F01D1420202D14FF0FF307047D6
:1009A0004FF00000704700BF08B50268034B9A4241
:1009B00000D008BD01F0D2F9FBE700BF00080040FD
:1009C00072B6FEE700B591B02822002106A8FFF715
:1009D0000BFC0023019302930393049305930122DC
:1009E00006924FF4803307930A9202220D920E93DF
:1009F0004FF4E0130F9306A801F0D8F980B90F2344
:100A0000019302210291002303934FF48062049228
:100A1000059301A801F0FCFB20B911B05DF804FBBF
:100A2000FFF7CEFFFFF7CCFF08B501F085F9FFF720
:100A3000C9FF00F011F800F043F800F059F900F098
:100A40009BF800F0F1F900F05FFC03F0EBFF00F021
:100A500021F803F0F9FFFEE782B00A4B9A6942F0F1
:100A600020029A619A6902F020020092009A9A6923
:100A700042F004029A619B6903F004030193019B15
:100A800002B070470010024008B54FF47A7004F0CD
:100A900055F8FAE708B5074A0021074803F0F0FFC8
:100AA000064B186000F0DCFA00F0C0FC00F02CFDF2
:100AB00008BD00BF5C510008890A00082C00002016
:100AC00000B583B00E4B5A6942F001025A615B696E
:100AD00003F001030193019B002205210E2001F088
:100AE0007BFF0E2001F088FF002205210F2001F07E
:100AF00073FF0F2001F080FF03B05DF804FB00BF1F
:100B0000001002400368B3F1804F00D0704782B0FC
:100B100003F50433DA6942F00102DA61DB6903F0BC
:100B200001030193019B02B07047000000B587B03C
:100B3000002302930393049305930368B3F1804F5A
:100B400002D007B05DF804FB03F504339A6942F064
:100B500004029A619B6903F004030193019B0F2334
:100B6000029302230393059302A9024801F04AFC71
:100B7000E7E700BF0008014000B58BB000230893F1
:100B800009930193029303930493059306930793A8
:100B900026484FF08042026047224260836044F65C
:100BA0001F62C26003618023836100F047FF58BB6E
:100BB00000230893099308A91C4801F085F830BB6D
:100BC00060230193002202920392059201A9174823
:100BD00000F08EFFF0B904220DEB0201134800F083
:100BE00087FFD0B9082201A9104800F081FFB8B9E9
:100BF0000C2201A90D4800F07BFFA0B90B48FFF7BC
:100C000095FF0BB05DF804FBFFF7DAFED0E7FFF7C6
:100C1000D7FED5E7FFF7D4FEDDE7FFF7D1FEE1E72A
:100C2000FFF7CEFEE4E7FFF7CBFEE7E7300000205A
:100C300010B504460021FFF749FE30B905492046AA
:100C4000FFF762FE18B9204610BD0020FCE70148FE
:100C5000FAE700BF0000344338B50446032815D82E
:100C60000846FFF7E5FF05461149FFF791FC1149DA
:100C7000FFF786FBFFF778FE0F4B53F8243033B9AC
:100C80000E4B1B6858630E4B43F8245038BD042BA1
:100C900005D0082B07D0094B1B681864F3E7074BF6
:100CA0001B689863EFE7054B1B68D863EBE700BF51
:100CB0001CC731410000FA43805100083000002079
:100CC0007800002010B500240BE0074B53F82410E7
:100CD000064800F08BFF00212046FFF7BDFF0134DE
:100CE000E4B2032CF1D910BD80510008300000207F
:100CF00008B50D480D4B03604FF46123436000239A
:100D00008360C36003610C2242618361C36101F0AF
:100D10007CFF30B9044B1A68D36843F01003D360EA
:100D200008BDFFF74DFEF5E7100100200038014037
:100D300070B586B000230293039304930593026871
:100D4000334B9A4201D006B070BD044603F55843B8
:100D50009A6942F480429A619A6902F48042009250
:100D6000009A9A6942F004029A619B6903F00403B5
:100D70000193019B4FF40073029302230393032317
:100D80000593244E02A9304601F03CFB4FF48063EA
:100D9000029300250395049502A9304601F032FB29
:100DA0001D481E4B0360456085608023C36005615C
:100DB0004561202383614FF48053C36101F046FCF9
:100DC00000BB154BE3635C621548164B03601023B0
:100DD0004360002383608022C260036143618361BA
:100DE0004FF48053C36101F031FC70B90C4BA36325
:100DF0005C6200220521252001F0EEFD252001F096
:100E0000FBFDA0E7FFF7DCFDDBE7FFF7D9FDEDE732
:100E10000038014000080140CC000020580002408A
:100E2000880000204400024008B50748074B0360D3
:100E30000423436040F27123836002F038FA00B962
:100E400008BDFFF7BDFDFBE7580100200030004062
:100E5000F9B110B404468C46F0B100224FF6FF7091
:100E600010E0400080B20133DBB2072B09D810F448
:100E7000004FF6D0400080B280F4815080F0010035
:100E8000F1E70132624508D2A35C80EA0320002327
:100E9000EBE74FF6FF707047002010BC7047000072
:100EA000014B00221A8070476401002070B582B0A7
:100EB0000446C678331DC55C731DC35C45EA032533
:100EC000B11C0230FFF7C4FF854205D00F4A1368FA
:100ED0000133136002B070BDA378012BFAD1042E48
:100EE000F8D960680090237A8DF80430084B1868B0
:100EF0000028EFD000231A46694602F0B3FB012810
:100F0000E8D0044A136801331360E3E77803002054
:100F10007C0300207403002008B5204B1B88CBB154
:100F2000012B20D0FF2B2ED85A1C92B21B490A80CD
:100F30001B49C854032A0FD9CB78D91DF92B25D8C2
:100F40008A4209D14B1E164AD35C0D2B21D0FFF7E4
:100F5000A7FF01E0AA2800D008BD591C0F4A118044
:100F60000F4AD054F8E7552804D0AA2808D10C4BD2
:100F70001870F1E7591C094A1180094AD054EBE76F
:100F8000FFF78EFFE8E7FFF78BFFE5E7FFF788FF46
:100F9000E2E71046FFF78AFFD9E700BF64010020AF
:100FA0006801002010B50B4B1C88A4B20A4B1B88AB
:100FB000A3420ED0094AD05CFFF7AEFF064A138861
:100FC00001339BB21380FF2BF0D9134600221A8005
:100FD000ECE710BD6A020020680200206C020020CD
:100FE00000B583B04FF480721849194802F04CF9EB
:100FF00048BB174BDB6B1A68136823F004031360BC
:101000004FF0FF31012003F033FAFFF7CBFF00224E
:101010006946104B186802F050FC0128F0D1BDF968
:101020000100FFF761FABDF803400B49FFF764FBCD
:10103000014622469DF8000000F08AF900F09AFE71
:10104000064B1860E3E7FFF7BBFCD2E76C02002019
:10105000100100207C0300200000204170030020CC
:1010600000B583B0134B1B682BB1134B1B68A3B1A6
:1010700003B05DF804FB00220521082002F0CEFA3F
:101080000C4B18600028F0D14FF0500383F3118807
:10109000BFF36F8FBFF34F8FFEE7074B0193022320
:1010A000009300234FF480720449054802F0B3FE18
:1010B000DEE700BF7C0300206C0300201451000811
:1010C000E10F000800B583B0002301930F4BDB6BE9
:1010D000C3B11B685B68C3F580739BB20C4A138075
:1010E0000C4B186870B101A903F0FEF9019B4BB1DC
:1010F0004FF0E0234FF08052C3F8042DBFF34F8F21
:10110000BFF36F8F03B05DF804FB00BF1001002038
:101110006A0200206C03002000EB40026D4B03EBE1
:10112000C2035B6903B970472DE9F047044600F03C
:1011300021FE04EB4402674B03EBC2031A69851AD4
:101140005869A8424BD9FFF7CBF96349FFF7D4FAA6
:1011500006462846FFF7C4F95F49FFF7CDFA054672
:101160005E493046FFF714FA07465D493046FFF7FF
:101170000FFA80465B4B53F8246004EB4402554B56
:1011800003EBC203D3F80C9039462846FFF7A8FBBF
:10119000002838D049462846FFF7FAF90646524B50
:1011A00053F824704FF07C514846FFF7F1F9294677
:1011B000FFF7EEF92946FFF7EBF901463846FFF74E
:1011C000DFF80146434B04EB440243F8321003EBD3
:1011D000C2039E602046FFF73FFDBDE8F0873D4B10
:1011E00004EB440003EBC002516843F830100020C8
:1011F000906004EB440203EBC20300225A612046D4
:10120000FFF72AFDE9E741462846FFF769FBE0B111
:10121000354B53F824804FF07C513046FFF7B8F936
:101220003946FFF7B5F901464046FFF7A9F8804671
:1012300039462846FFF7A2F83146FFF7A9F90146DB
:101240004046FFF79DF80146BCE741462846FFF7B8
:1012500095F805464FF07C513046FFF799F939462D
:10126000FFF796F9824639464046FFF787F8314640
:10127000FFF78EF901465046FFF782F8804629466F
:101280004846FFF785F901463046FFF777F80746ED
:101290004146154B53F82400FFF772F88046294663
:1012A0003046FFF775F901464046FFF769F80646F4
:1012B0004FF07C514846FFF76BF92946FFF768F974
:1012C0002946FFF765F901463046FFF757F8014612
:1012D0003E4677E7A003002000007A449A99993EA1
:1012E0003333333F800300209003002010B509E022
:1012F0002046FFF711FF0134E4B2032CF8D9052092
:1013000003F01CFC0024F8E710B5FFF7DBFC00231A
:1013100014E00C4C03EB4302D000211800222250B1
:101320004A608A60CA60002008614861064941F845
:101330002320064941F823200133DBB2032BE8D9EF
:1013400010BD00BFA00300209003002080030020F8
:10135000032800D970472DE9F84F04460D4617467B
:10136000DFF8A89000EB40064FEAC60A09EBC60674
:1013700059F80A102846FFF701F883463846FFF768
:10138000AFF82349FFF7B8F980467560776100F040
:10139000F1FC30610023B36059F80A201D4B43F87B
:1013A00024201D494046FFF7AFFAD8B12BF000408A
:1013B0001A49FFF7A9FAA8B119494046FFF7E8F81A
:1013C00001465846FFF798F90546164B43F82400A6
:1013D00015494046FFF7DCF801462846FFF78CF92F
:1013E000F06011E000210F4B43F82410074B04EB91
:1013F000440203EBC200C16043F832500022426154
:1014000029462046FFF728FCBDE8F88FA0030020FE
:1014100000007A44900300206F12833A0AD7233CDD
:101420003333333F800300209A99993E08B5034A2D
:101430000021034803F024FB08BD00BF90510008C1
:10144000ED12000808B5642003F078FB014801F0B4
:101450005CFFF8E75801002070B588B0AA238DF82A
:10146000083055238DF8093081238DF80A30102378
:101470008DF80B3000240AE000238DF80730A3001C
:10148000DBB2043302AA0199D1500134E4B2032C37
:1014900016D88DF80440154E650004EB440314493A
:1014A00056F83300FFF774F8FFF738FAADF8050087
:1014B000254406EBC5067369002BDDD00123DCE76C
:1014C00012210DF10A00FFF7C3FC8DF81C00C0F3D8
:1014D00007208DF81D000D238DF81E300A231722DA
:1014E00002A9044801F0C1FB08B070BDA0030020B0
:1014F000000020411001002008B5322003F01EFB3F
:10150000FFF7AAFFF9E7000008B5054A00210548E2
:1015100003F0B6FA044A0021044803F0B1FA08BD0A
:10152000D8510008F9140008B45100084514000807
:10153000FEE7FEE7FEE7FEE7FEE7704708B5024874
:1015400001F062F908BD00BF8800002008B502481C
:1015500001F05AF908BD00BFCC00002008B50248D0
:1015600000F04EF908BD00BF0004002000B583B0B4
:101570000A4B1B681A6812F0100F05D1074801F0DA
:1015800093FC03B05DF804FB002201921A680192FB
:101590005B680193019BFFF795FDEFE710010020C9
:1015A00000B583B0114B9A6942F001029A619A69C1
:1015B00002F001020092009ADA6942F08052DA6188
:1015C000DB6903F080530193019B00220F216FF030
:1015D000010001F001FA064A536823F0E06343F08A
:1015E0008063536003B05DF804FB00BF001002404D
:1015F0000000014030B589B00446214BDA6942F061
:101600000402DA61DB6903F004030193019B02A980
:1016100003A800F0D9FE069BCBB900F0B5FE034647
:10162000184AA2FB03239B0C013B1748174A026090
:1016300040F2E732C260436000230361836083614C
:1016400000F0D0F9054630B1284609B030BD00F0B1
:101650009BFE4300E4E70C4800F09AF8054600289A
:10166000F2D11E2001F0C8F90F2C01D90125EBE7BA
:10167000002221461E2001F0AFF9054B1C60E3E774
:101680000010024083DE1B430004002000080040DD
:101690000400002030B4026A036A23F001030362ED
:1016A0004568836923F073030C681C4322F002022F
:1016B0008B6813430B4A904206D0456084614A68A8
:1016C0004263036230BC704723F00803CA681A43C0
:1016D00022F0040325F440754A692A438D691543B5
:1016E000EBE700BF002C014030B4036A026A22F429
:1016F000807202624468C26922F073020D68154369
:1017000023F400738A6843EA02230D4A904206D00C
:101710004460C5614A68C263036230BC704723F409
:101720000063CA6843EA022323F4806324F440542C
:101730004A6944EA02148A6944EA0214E8E700BFED
:10174000002C014030B4036A026A22F48052026223
:101750004468C26922F4E6420D6842EA052223F495
:1017600000538D6843EA0533074DA84206D0446014
:10177000C2614A680264036230BC704724F480444A
:101780004D6944EA8514F2E7002C014070470000DF
:1017900090F83D30DBB2012B27D1022380F83D3099
:1017A0000268D36843F00103D3600368114A93428F
:1017B00010D0B3F1804F0DD0A2F59432934209D0EE
:1017C00002F58062934205D01A6842F001021A6065
:1017D000002070479A6802F00702062A07D01A68AC
:1017E00042F001021A60002070470120704700207B
:1017F000704700BF002C014070477047704770472A
:1018000070B504460368DE681D6915F0020F10D03C
:1018100016F0020F0DD06FF002021A610123037758
:1018200003689B6913F0030F5ED0FFF7E6FF002308
:10183000237715F0040F12D016F0040F0FD0236891
:101840006FF004021A610223237723689B6913F463
:10185000407F4FD02046FFF7D0FF0023237715F0BD
:10186000080F12D016F0080F0FD023686FF008028F
:101870001A61042323772368DB6913F0030F40D038
:101880002046FFF7BAFF0023237715F0100F12D080
:1018900016F0100F0FD023686FF010021A610823A2
:1018A00023772368DB6913F4407F31D02046FFF7AC
:1018B000A4FF0023237715F0010F02D016F0010FCB
:1018C0002DD115F0800F02D016F0800F2FD115F01A
:1018D000400F02D016F0400F31D115F0200F02D08A
:1018E00016F0200F33D170BDFFF786FF2046FFF7BB
:1018F00085FF9CE72046FFF77FFF2046FFF77EFF2E
:10190000ABE72046FFF778FF2046FFF777FFBAE7FF
:101910002046FFF771FF2046FFF770FFC9E72368F5
:101920006FF001021A612046FFF73EF8C9E723680D
:101930006FF080021A61204600F0FDF9C7E72368C6
:101940006FF040021A612046FFF759FFC5E7236890
:101950006FF020021A61204600F0ECF9C3E70000A6
:1019600003681F4A90420AD0B0F1804F07D0A2F519
:101970009432904203D002F58062904203D123F06A
:1019800070034A681343164A90420AD0B0F1804F60
:1019900007D0A2F59432904203D002F580629042C3
:1019A00003D123F44073CA68134323F080034A69C8
:1019B000134303608B68C3620B688362084B9842D1
:1019C0000AD001234361036913F0010F03D00369B7
:1019D00023F00103036170470B690363F1E700BF64
:1019E000002C014040B310B5044690F83D30F3B1EF
:1019F000022384F83D30214651F8040BFFF7B0FF75
:101A0000012384F8463084F83E3084F83F3084F86F
:101A1000403084F8413084F8423084F8433084F810
:101A2000443084F8453084F83D30002010BD80F803
:101A30003C30FFF7ABFEDBE70120704740B310B549
:101A4000044690F83D30F3B1022384F83D3021463E
:101A500051F8040BFFF784FF012384F8463084F823
:101A60003E3084F83F3084F8403084F8413084F8C8
:101A7000423084F8433084F8443084F8453084F8A8
:101A80003D30002010BD80F83C30FFF73BF8DBE72D
:101A90000120704730B4036A026A22F01002026229
:101AA0004468826922F4E6420D6842EA052223F086
:101AB00020038D6843EA05130C4DA84206D044600C
:101AC00082614A688263036230BC704723F08003FE
:101AD000CD6843EA051323F0400324F440644D69C4
:101AE00044EA85048D6944EA8504E8E7002C014056
:101AF00038B590F83C30012B66D004460D460123E2
:101B000080F83C300C2A5AD8DFE802F007595959BE
:101B10001B5959593059595944000068FFF7BAFD0B
:101B20002268936943F0080393612268936923F064
:101B3000040393612268936929690B439361002030
:101B40003EE00068FFF7A6FF2268936943F4006354
:101B500093612268936923F4806393612268936997
:101B6000296943EA01239361002029E00068FFF717
:101B7000BBFD2268D36943F00803D3612268D369AF
:101B800023F00403D3612268D36929690B43D3612D
:101B9000002015E00068FFF7D5FD2268D36943F403
:101BA0000063D3612268D36923F48063D361226820
:101BB000D369296943EA0123D361002000E00120B1
:101BC000002384F83C3038BD0220FCE701F01F01FF
:101BD0004FF0010C0CFA01FC036A23EA0C030362C8
:101BE000036A8A40134303627047000010B504463D
:101BF000084651BB94F83E30DBB2013B18BF0123CD
:101C0000002B5BD1002839D1022384F83E30012219
:101C100001462068FFF7DAFF23682A4A93423DD045
:101C20002368284A93423ED0B3F1804F3BD0A2F5BF
:101C30009432934237D002F58062934233D01A68CF
:101C400042F001021A60002039E0042908D0082976
:101C50000DD094F84130DBB2013B18BF0123CFE730
:101C600094F83F30DBB2013B18BF0123C8E794F87A
:101C70004030DBB2013B18BF0123C1E7042805D087
:101C8000082807D0022384F84130C0E7022384F8F3
:101C90003F30BCE7022384F84030B8E75A6C42F486
:101CA00000425A64BCE79A6802F00702062A07D08D
:101CB0001A6842F001021A60002000E0012010BD05
:101CC0000020FCE7002C014090F83C20012A2CD099
:101CD00010B40346012280F83C20022280F83D2007
:101CE00002685068946820F0700C086840EA0C00A4
:101CF00050601A680E4882420AD0B2F1804F07D075
:101D0000A0F59430824203D000F58060824204D175
:101D100024F08004496821439160012283F83D202A
:101D2000002083F83C0010BC70470220704700BFC1
:101D3000002C01407047704708B5074A136843F00C
:101D400010031360032000F035FE0F20FFF752FC54
:101D5000FFF726FC002008BD00200240034A11685E
:101D6000034B1B780B441360704700BF48040020EE
:101D700000000020014B1868704700BF4804002095
:101D800082B0084B1B68084AA2FB03235B0A00FBD6
:101D900003F3019300BF019B5A1E0192002BF9D15E
:101DA00002B0704708000020D34D6210002800F0F8
:101DB000F18170B582B00446036813F0010F2CD096
:101DC000994B5B6803F00C03042B1DD0964B5B68AA
:101DD00003F00C03082B12D06368B3F5803F41D0A9
:101DE000002B55D103F1804303F504331A6822F424
:101DF00080321A601A6822F480221A6037E08A4B17
:101E00005B6813F4803FE7D0874B1B6813F4003FF7
:101E100003D06368002B00F0BF81236813F0020F2A
:101E200075D0814B5B6813F00C0F5FD07E4B5B6805
:101E300003F00C03082B54D02369002B00F08A8098
:101E40007A4B01221A60FFF795FF0546764B1B6817
:101E500013F0020F75D1FFF78DFF401B0228F5D953
:101E600003209EE1704A136843F480331360636873
:101E700043B3FFF77FFF05466B4B1B6813F4003F2E
:101E8000CBD1FFF777FF401B6428F5D9032088E109
:101E9000B3F5A02F09D0644B1A6822F480321A607F
:101EA0001A6822F480221A60E1E703F18043A3F567
:101EB0003C331A6842F480221A601A6842F4803275
:101EC0001A60D4E7FFF756FF0546574B1B6813F41B
:101ED000003FA2D0FFF74EFF401B6428F5D9032036
:101EE0005FE1514B5B6813F4803FA5D14E4B1B68FB
:101EF00013F0020F03D02369012B40F04F814A4AAF
:101F0000136823F0F803616943EAC103136023688F
:101F100013F0080F33D0A369002B5CD0434B012290
:101F2000C3F88024FFF726FF05463F4B5B6A13F09A
:101F3000020F21D1FFF71EFF401B0228F5D9032015
:101F40002FE1394A136823F0F803616943EAC103BA
:101F50001360DCE7354B00221A60FFF70BFF0546E4
:101F6000314B1B6813F0020FD1D0FFF703FF401B6A
:101F70000228F5D9032014E10120FFF701FF2368AF
:101F800013F0040F00F09680274BDB6913F0805F9D
:101F900034D1254BDA6942F08052DA61DB6903F013
:101FA00080530193019B0125214B1B6813F4807F13
:101FB00026D0E368012B3DD0002B53D103F18043A1
:101FC00003F504331A6A22F001021A621A6A22F037
:101FD00004021A6233E0154B0022C3F88024FFF795
:101FE000C9FE0546104B5B6A13F0020FC7D0FFF71E
:101FF000C1FE401B0228F5D90320D2E00025D3E71B
:102000000B4A136843F480731360FFF7B3FE064670
:10201000074B1B6813F4807FCBD1FFF7ABFE801B0F
:102020006428F5D90320BCE00010024000004242C1
:10203000007000405F4A136A43F001031362E368D3
:1020400033B3FFF797FE06465A4B1B6A13F0020F95
:102050002FD1FFF78FFE801B41F288339842F3D9CE
:1020600003209EE0052B09D0524B1A6A22F0010290
:102070001A621A6A22F004021A62E0E74D4B1A6AE9
:1020800042F004021A621A6A42F001021A62D6E7AA
:10209000FFF770FE0646474B1B6A13F0020F08D08D
:1020A000FFF768FE801B41F288339842F3D9032082
:1020B00077E0E5B9E369002B72D03E4A526802F03E
:1020C0000C02082A56D0022B17D03B4B00221A666E
:1020D000FFF750FE0446374B1B6813F0007F47D0D4
:1020E000FFF748FE001B0228F5D9032059E0314ACA
:1020F000D36923F08053D361DCE72F4B00221A66AB
:10210000FFF738FE05462B4B1B6813F0007F06D007
:10211000FFF730FE401B0228F5D9032041E0236A77
:10212000B3F5803F1AD023494B6823F47413226A15
:10213000606A024313434B601F4B01221A66FFF78C
:1021400019FE04461B4B1B6813F0007F0ED1FFF7EE
:1021500011FE001B0228F5D9032022E0154A53681E
:1021600023F40033A1680B435360DCE7002018E040
:10217000002016E0012B16D00E4B5B6803F4803173
:10218000226A914211D103F47013626A93420ED114
:10219000002006E001207047012002E0012000E05D
:1021A000002002B070BD0120FBE70120F9E701200B
:1021B000F7E700BF00100240000042420F4B5B688F
:1021C00003F00C02082A01D00D487047C3F3834284
:1021D0000C49885C13F4803F0BD0084B5B68C3F359
:1021E0004043094AD35C064A02FB00F0B0FBF3F01F
:1021F0007047064B03FB00F0704700BF0010024021
:1022000000127A0000520008FC51000800093D004D
:10221000002800F0A08070B50D460446524B1B68A4
:1022200003F007038B420BD24F4A136823F00703D6
:102230000B431360136803F007038B4240F08D805B
:10224000236813F0020F17D013F0040F04D0474A8D
:10225000536843F4E0635360236813F0080F04D01D
:10226000424A536843F460535360404A536823F032
:10227000F003A1680B435360236813F0010F31D0C2
:102280006368012B20D0022B25D0384A126812F047
:10229000020F64D035494A6822F0030213434B60B1
:1022A000FFF768FD0646314B5B6803F00C0362687C
:1022B000B3EB820F16D0FFF75DFD801B41F2883330
:1022C0009842F0D9032045E0284A126812F4003FF2
:1022D000E0D101203EE0254A126812F0007FD9D1FA
:1022E000012037E0204B1B6803F00703AB420AD9FB
:1022F0001D4A136823F007032B431360136803F090
:102300000703AB422DD1236813F0040F06D0174A00
:10231000536823F4E063E1680B435360236813F0D0
:10232000080F07D0114A536823F46053216943EA28
:10233000C1035360FFF742FF0C4B5B68C3F3031309
:102340000B4AD35CD8400B4B18600B4B1868FFF757
:1023500051F9002070BD012070470120FAE70120EB
:10236000F8E70120F6E700BF00200240001002401D
:10237000185200080800002004000020014B1868D3
:10238000704700BF0800002008B5FFF7F7FF044BB7
:102390005B68C3F30223034AD35CD84008BD00BF87
:1023A000001002401052000808B5FFF7E7FF044B89
:1023B0005B68C3F3C223034AD35CD84008BD00BFA7
:1023C00000100240105200080F2303600B4B5A68A4
:1023D00002F0030242605A6802F0F00282605A681A
:1023E00002F4E062C2605B68DB0803F4E06303614F
:1023F000034B1B6803F007030B607047001002409B
:102400000020024070B582B00024A446A1E07E4DB9
:10241000AB4214D00CD8A5F58015AB420FD005F512
:102420007025AB420BD0A5F58015AB4210D106E06C
:10243000764DAB4203D005F58035AB4208D18B68B1
:10244000002B50D0012B49D04261082400E0CC6819
:10245000BEF1FF0F49D806464FEA8C0233680F25BC
:10246000954023EA050304FA02F2134333604B68F4
:1024700013F0805F6BD0664B9A6942F001029A615B
:102480009B6903F001030193019B4FEA9C02951C99
:10249000604B53F825600CF00305AD000F23AB40F3
:1024A00026EA03065C4B984226D003F580639842E7
:1024B00000F08C8003F58063984200F0898003F57A
:1024C0008063984216D0042317E0CC680434BFE739
:1024D000CC680834BCE7CC680C34B9E70261082446
:1024E000B6E70024B4E70424B2E7061DACF1080205
:1024F0009200B3E7032300E00023AB4033430232F2
:10250000444D45F822304B6813F4801F62D0434A93
:10251000936843EA0E0393604B6813F4001F5FD087
:102520003E4AD36843EA0E03D3604B6813F4003F7E
:102530005CD03A4A536843EA0E0353604B6813F485
:10254000803F59D0354A136843EA0E0313600CF1FB
:10255000010C0B6833FA0CF254D0012202FA0CF28F
:1025600003EA020E32EA0303F1D14B68122B3FF665
:102570004EAF122B3FF66CAF01A555F823F000BF0C
:102580003F2400084F240008D1240008E324000859
:102590005124000851240008512400085124000847
:1025A0005124000851240008512400085124000837
:1025B0005124000851240008512400085124000827
:1025C00051240008CB240008D7240008012394E7F5
:1025D000022392E7114A936823EA0E0393609BE774
:1025E0000E4AD36823EA0E03D3609EE70B4A536872
:1025F00023EA0E035360A1E7084A136823EA0E0397
:102600001360A4E702B070BD00002210000031107A
:102610000010024000000140000801400004014099
:1026200030B40124056CAC40C56B6C600468636019
:102630004368102B05D0036899600368DA6030BCEA
:10264000704703689A600368D960F8E750B310B424
:1026500002460168144B0B441448A0FB03031B09FA
:102660009B001364124BD363022382F82130086865
:102670006FF30D10536894682343D468234314699F
:1026800023435469234394692343D4692343034375
:102690000B6000209063012382F8213082F8200033
:1026A00010BC704701207047F8FFFDBFCDCCCCCCEB
:1026B0000000024038B5044690F82000012832D0CE
:1026C000012084F8200094F82100C0B2012804D031
:1026D000002384F82030022038BD022084F8210035
:1026E0000020A0632568286820F0010028602046AB
:1026F000FFF796FFE36A5BB12268136843F00E03AD
:1027000013602268136843F0010313600020E3E7BD
:102710002268136823F0040313602268136843F0EF
:102720000A031360EDE70220D6E7034690F8212064
:10273000D2B2022A06D004228263002280F820202E
:102740000120704701680A6822F00E020A600168E1
:102750000A6822F001020A60026CC06B012101FAD2
:1027600002F2426083F82110002083F820007047B5
:1027700008B590F82130DBB2022B03D00423836329
:10278000012008BD0268136823F00E03136002687D
:10279000136823F0010313600368194A934214D0AD
:1027A000143293421FD0143293421ED014329342FB
:1027B0001ED0143293421ED01432934202D04FF0F6
:1027C000807203E04FF4801200E001220D4B5A604A
:1027D000012380F82130002380F82030436B6BB157
:1027E00098470020CDE71022F0E74FF48072EDE724
:1027F0004FF48052EAE74FF48032E7E70020C0E769
:10280000080002400000024038B5C36B1A68046833
:102810002568016C04238B40134235D015F0040F5A
:1028200032D0236813F0200F03D1236823F0040370
:1028300023600368434A934214D01432934218D061
:102840001432934217D01432934217D01432934269
:1028500017D01432934202D04FF0806203E04FF45D
:10286000800200E00422384B5A60C36A03B19847E3
:1028700038BD4022F7E74FF48062F4E74FF480421E
:10288000F1E74FF48022EEE702238B4013423CD065
:1028900015F0020F39D0236813F0200F06D12368FA
:1028A00023F00A032360012380F821300368254ABE
:1028B000934214D0143293421CD0143293421BD052
:1028C000143293421BD0143293421BD014329342E1
:1028D00002D04FF0007203E04FF4001200E0022239
:1028E000194B5A60002380F82030836A002BBFD038
:1028F0009847BDE72022F3E74FF40072F0E74FF46A
:102900000052EDE74FF40032EAE708238B40134210
:10291000AED015F0080FABD0236823F00E03236070
:10292000026CC16B012303FA02F24A60836380F8F0
:102930002130002380F82030036B002B98D098477B
:1029400096E700BF0800024000000240002808DBB4
:102950000901C9B200F1604000F5614080F8001340
:10296000704700F00F000901C9B2014B19547047BC
:1029700014ED00E000B500F00700C0F1070CBCF159
:10298000040F28BF4FF0040C031D062B0FD9C31EE4
:102990004FF0FF3E0EFA0CF021EA000199400EFACA
:1029A00003FE22EA0E0241EA02005DF804FB002366
:1029B000EEE70000074AD36823F4E0631B041B0C16
:1029C000000200F4E060034343F0BF6343F40033CC
:1029D000D360704700ED00E010B50446054BD868A1
:1029E000C0F30220FFF7C6FF01462046FFF7AEFF07
:1029F00010BD00BF00ED00E0002807DB00F01F0263
:102A0000400901239340024A42F82030704700BF3A
:102A100000E100E0026802F10C0353E8003F23F0FC
:102A2000C0030C3242E800310029F3D1202380F8A2
:102A300041307047026802F10C0353E8003F23F471
:102A400090730C3242E800310029F3D1026802F1A0
:102A5000140353E8003F23F00103143242E800312D
:102A60000029F3D1036B012B05D0202380F84230DD
:102A7000002303637047026802F10C0353E8003F30
:102A800023F010030C3242E800310029F3D1ECE7C7
:102A900090F84130DBB2212B01D0022070478368CF
:102AA000B3F5805F17D0036A5A1C02621A78036874
:102AB0005A60C38C9BB2013B9BB2C3844BB9026882
:102AC000D36823F08003D3600268D36843F04003E7
:102AD000D360002070470369002BE4D1036A1B8890
:102AE0000268C3F308035360036A02330362E0E73A
:102AF00010B504460268136923F44053C1680B43C0
:102B0000136183680269134342691A430168CB6801
:102B100023F4B05323F00C031343CB6002685369D2
:102B200023F4407381690B4353610268134B9A424B
:102B300020D0FFF729FC024602EB820202EB820260
:102B400063689B00B2FBF3F20D48A0FB0231490918
:102B5000642303FB11231B013233A0FB03035B0936
:102B600003F0F00202EB011203F00F03216813449B
:102B70008B6010BDFFF718FC0246DDE7003801400E
:102B80001F85EB512DE9F04383B005460E461746ED
:102B90009946DDF828802B681C6836EA04040CBFCF
:102BA00001240024BC4228D1B8F1FF3FF3D0FFF745
:102BB000E1F8A0EB0900404523D8B8F1000F22D07E
:102BC0002B68DA6812F0040FE5D0802EE3D0402E97
:102BD000E1D01A6812F0080FDDD0002401941A68C1
:102BE00001925B680193019B2846FFF723FF0823AE
:102BF0006B6485F84040012000E0002003B0BDE890
:102C0000F0830320FAE70320F8E760B310B5044629
:102C100090F8413013B3242384F841302268D368FC
:102C200023F40053D3602046FFF762FF2268136944
:102C300023F4904313612268536923F02A035361FC
:102C40002268D36843F40053D360002060642023DB
:102C500084F8413084F84230606310BD80F8403021
:102C6000FEF766F8D7E7012070472DE9F04182B002
:102C70001E4690F84130DBB2202B56D104460D465B
:102C80009046002955D00AB901204FE00023436443
:102C9000212380F84130FFF76DF80746A4F824801F
:102CA000A4F82680A368B3F5805F02D04FF0000837
:102CB00014E023692BB34FF000080FE0202384F8C1
:102CC0004130032032E038F8023B2268C3F30803A6
:102CD0005360E28C92B2013A92B2E284E38C9BB2EE
:102CE00093B100963B46002280212046FFF74AFF21
:102CF0000028E3D1002DE6D015F8012B23685A6097
:102D0000E7E7A8460025E9E700963B460022402178
:102D10002046FFF737FF18B9202384F8413005E03B
:102D2000202384F84130032000E0022002B0BDE8F7
:102D3000F0810120FAE7704708B50168CA6822F0FF
:102D40004002CA60202280F84120FFF7F4FF0020F3
:102D500008BD70477047704710B5446A23685A69C8
:102D600094F84130DBB2212B10D023685A6902F06D
:102D7000400294F84230DBB2222B11D0636C43F056
:102D8000100363642046FFF7E6FF10BD02F08002E7
:102D9000002AEAD00023E3842046FFF73BFEE4E765
:102DA000002AEBD00023E3852046FFF743FEE5E74A
:102DB00008B5406A0023C385C384FFF7CCFF08BD74
:102DC000704790F84230DBB2222B69D18368B3F5AB
:102DD000805F4FD0826AB3F5805F04D0002B56D15C
:102DE0000369002B53D103685B681370836A013356
:102DF0008362C38D9BB2013B9BB2C385002B51D133
:102E000000B583B00268D36823F02003D360026862
:102E1000D36823F48073D3600268536923F00103FD
:102E20005361202380F8423000234363036B012B5E
:102E300033D100230363026802F10C0353E8003F1F
:102E400023F010030C3242E800310029F3D103686B
:102E50001A6812F0100F06D0002201921A6801922F
:102E60005B680193019B818DFFF7AAFF002003B0EF
:102E70005DF804FB0269002AACD1826A03685B68D2
:102E8000C3F308031380836A02338362B1E70368E4
:102E90005B6803F07F031370A8E7FFF75AFFE5E7CD
:102EA000022070470020704710B582B004460268C7
:102EB0001368D068516913F00F0F09D113F0200F78
:102EC0000CD010F0200F09D02046FFF77AFF16E053
:102ED00011F0010115D110F4907F12D1216B01295D
:102EE00079D013F0800F03D010F0800F40F01381E1
:102EF00013F0400F03D010F0400F40F0108102B0EB
:102F000010BD13F0010F06D010F4807F03D0626C67
:102F100042F00102626413F0040F04D019B1626C34
:102F200042F00202626413F0020F04D019B1626C25
:102F300042F00402626413F0080F07D010F0200F73
:102F400000D119B1626C42F008026264626C002A1E
:102F5000D5D013F0200F02D010F0200F29D1236814
:102F60005B6903F04003626C12F0080F00D163B399
:102F70002046FFF75FFD23685B6913F0400F20D008
:102F8000226802F1140353E8003F23F04003143297
:102F900042E800310029F3D1E36B73B1624A5A630E
:102FA000E06BFFF7E5FB0028A9D0E06B436B984787
:102FB000A5E72046FFF705FFD1E72046FFF7CBFE48
:102FC0009DE72046FFF7C7FE99E72046FFF7C3FEBF
:102FD0000023636493E713F0100F82D010F0100FFA
:102FE0003FF47FAF0023019313680193536801936B
:102FF000019B536913F0400F51D0E26B13685B687B
:103000009BB2002B3FF47BAFA18D99427FF677AF47
:10301000E3859369202B37D0226802F10C0353E833
:10302000003F23F480730C3242E800310029F3D1D1
:10303000226802F1140353E8003F23F00103143225
:1030400042E800310029F3D1226802F1140353E869
:10305000003F23F04003143242E800310029F3D14D
:10306000202384F8423000232363226802F10C03FA
:1030700053E8003F23F010030C3242E800310029EE
:10308000F3D1E06BFFF751FB02236363A18DE38D66
:103090009BB2C91A89B22046FFF792FE2FE7A18D95
:1030A000E38D9BB2C91A89B2E38D9BB2002B3FF42A
:1030B00026AF00293FF423AF226802F10C0353E846
:1030C000003F23F490730C3242E800300028F3D123
:1030D000226802F1140353E8003F23F00103143285
:1030E00042E800300028F3D1202384F84230002346
:1030F0002363226802F10C0353E8003F23F010031E
:103100000C3242E800300028F3D1022363632046EA
:10311000FFF756FEF3E62046FFF7BAFCEFE620463F
:10312000FFF70AFEEBE600BFB12D000808B5406AC4
:1031300001234363036B012B02D0FFF70BFE08BD95
:10314000818D4908FFF73CFEF9E708B50346406A60
:103150001B681B6813F0200F2BD10023C385026866
:1031600002F10C0353E8003F23F480730C3242E871
:1031700000310029F3D1026802F1140353E8003F43
:1031800023F00103143242E800310029F3D1026830
:1031900002F1140353E8003F23F04003143242E8E5
:1031A00000310029F3D1202380F84230036B012B3A
:1031B00007D000234363036B012B0FD0FFF7C9FD3A
:1031C00008BD026802F10C0353E8003F23F010032E
:1031D0000C3242E800310029F3D1EAE7818DFFF794
:1031E000EFFDEDE730B583B004461346816282857A
:1031F00000254564222280F84220C26B1F4890625D
:10320000E26B1F48D062E26B1E481063E26B5563AD
:1032100020680A46011DE06BFFF74CFA0195236810
:103220001A6801925B680193019B23695BB1226874
:1032300002F10C0353E8003F43F480730C3242E880
:1032400000310029F3D1226802F1140353E8003F52
:1032500043F00103143242E800310029F3D122681F
:1032600002F1140353E8003F43F04003143242E8F4
:1032700000310029F3D1002003B030BD4B310008EC
:103280002D310008592D000808B590F84230DBB206
:10329000202B08D149B10AB9012008BD00230363DE
:1032A000FFF7A0FFF9E70220F7E70120F5E750B3A9
:1032B00038B5044603684CF6CC421A60036845F200
:1032C00055521A60036842685A60036882689A60BF
:1032D000FEF750FD05462368DA6812F0030F0DD0A3
:1032E000FEF748FD401B41F23C339842F3D9236876
:1032F000DB6813F0030FEED0032003E04AF6AA22A6
:103300001A60002038BD0120704703684AF6AA22DF
:103310001A6000207047704700F1080343604FF0C7
:10332000FF328260C36003610023036070470023A3
:103330000361704743684B609A688A605160996086
:103340000861036801330360704730B40D68B5F15C
:10335000FF3F11D000F108031C465B681A68AA42BF
:10336000FAD963684B6099608C606160086103689A
:103370000133036030BC70470469F2E703694168B8
:1033800082688A60416851605A68824206D0002291
:1033900002611A68013A1A601868704782685A60B8
:1033A000F5E710B5044601F065FDA26BE36B9A42A8
:1033B00004D0002401F080FD204610BD0124F9E76F
:1033C00010B5044601F056FDA36B23B9012401F0AA
:1033D00073FD204610BD0024F9E770B5044615467C
:1033E000866B026C5AB903681BB100200136A663D4
:1033F00070BD806800F0F4FF0023A360F6E76DB9AC
:103400004068FCF741FF6368226C13446360A26864
:10341000934219D3236863602846E7E7C068FCF746
:1034200033FFE368226C51429B1AE36022689342A7
:1034300002D2A3680B44E360022D01D00020D5E73F
:1034400026B1013E0020D1E72846CFE70020CDE796
:1034500008B50346026C62B10846D9681144D960C8
:10346000D3F808C0614501D31968D960D968FCF761
:103470000BFF08BD38B5054601F0FCFC95F845404A
:1034800064B201E0013C64B2002C0ADD6B6A43B116
:1034900005F1240000F0FAFE0028F3D000F08AFFC6
:1034A000F0E7FF2385F8453001F006FD01F0E2FC6E
:1034B00095F8444064B201E0013C64B2002C0ADD9E
:1034C0002B6943B105F1100000F0E0FE0028F3D0B5
:1034D00000F070FFF0E7FF2385F8443001F0ECFCCA
:1034E00038BD38B5E0B10D46044601F0C3FC236891
:1034F000E26B216C01FB0230A0600020A0636360DE
:10350000013A02FB0133E360FF2384F8443084F87E
:103510004530FDB9236963B901F0CEFC012038BD07
:103520004FF0500383F31188BFF36F8FBFF34F8FBA
:10353000FEE704F1100000F0A9FE0028ECD04FF0E7
:10354000E0234FF08052C3F8042DBFF34F8FBFF339
:103550006F8FE1E704F11000FFF7DEFE04F12400B5
:10356000FFF7DAFED8E738B51D46049C0B4649B98B
:103570002460E063236401212046FFF7B2FF84F852
:103580004C5038BD2260F4E740B94FF0500383F34C
:103590001188BFF36F8FBFF34F8FFEE710B584B074
:1035A0001C46844653B192B189B94FF0500383F35E
:1035B0001188BFF36F8FBFF34F8FFEE74FF05003BB
:1035C00083F31188BFF36F8FBFF34F8FFEE76AB1AC
:1035D00050230393039B502B13D04FF0500383F3DE
:1035E0001188BFF36F8FBFF34F8FFEE70029EFD035
:1035F0004FF0500383F31188BFF36F8FBFF34F8FEA
:10360000FEE7039B012384F8463000949DF81830B0
:103610006046FFF7A8FF204604B010BD40B94FF048
:10362000500383F31188BFF36F8FBFF34F8FFEE713
:10363000F0B583B00D461446064601FB00F050304D
:1036400001F004FB074650B1002380F8463000909B
:10365000234600F1500229463046FFF784FF3846E2
:1036600003B0F0BDF0B585B0019288B10F461D469C
:103670000446B1B1022D20D1E36B012B1DD04FF0D8
:10368000500383F31188BFF36F8FBFF34F8FFEE7B3
:103690004FF0500383F31188BFF36F8FBFF34F8F49
:1036A000FEE7036C002BE5D04FF0500383F3118845
:1036B000BFF36F8FBFF34F8FFEE700F081FE06462A
:1036C00058B9019B002B48D04FF0500383F3118869
:1036D000BFF36F8FBFF34F8FFEE700263DE02A4612
:1036E00039462046FFF779FE636A7BB948B14FF04F
:1036F000E0234FF08052C3F8042DBFF34F8FBFF388
:103700006F8F01F0D9FB012005B0F0BD04F124005A
:1037100000F0BCFD0028F4D04FF0E0234FF08052C1
:10372000C3F8042DBFF34F8FBFF36F8FE9E701F0AC
:10373000C3FB0020E8E702A800F0EEFD012619E037
:10374000002384F8443021E0002384F8453023E04E
:103750002046FFF78FFE00F077FC01F08BFBA26B99
:10376000E36B9A42BBD3022DB9D0019B002BDED074
:10377000002EE0D001F0A0FB00F0CCFB01F07AFBC2
:1037800094F8442052B2B2F1FF3FD9D094F84520CA
:1037900052B2B2F1FF3FD7D001F08EFB01A902A8CF
:1037A00000F0C6FDD8B92046FFF7FBFD0028CFD0BA
:1037B000019904F1100000F035FD2046FFF75AFE94
:1037C00000F042FC0028C8D14FF0E0234FF08052B7
:1037D000C3F8042DBFF34F8FBFF36F8FBDE72046B3
:1037E000FFF748FE00F030FC00208DE72DE9F8439C
:1037F00090B10F4616461C460546B1B1022C20D1A9
:10380000EB6B012B1DD04FF0500383F31188BFF3F6
:103810006F8FBFF34F8FFEE74FF0500383F3118894
:10382000BFF36F8FBFF34F8FFEE7036C002BE5D024
:103830004FF0500383F31188BFF36F8FBFF34F8FA7
:10384000FEE701F001FCEFF311884FF0500383F322
:103850001188BFF36F8FBFF34F8FAA6BEB6B9A4248
:1038600006D3022C04D0002088F31188BDE8F88329
:1038700095F845904FFA89F9AB6B224639462846B0
:10388000FFF7ABFDB9F1FF3F06D009F101035BB2D1
:1038900085F845300120E7E76B6A0BB90120E3E7C3
:1038A00005F1240000F0F2FC18B126B101203060CF
:1038B000DAE70120D8E70120D6E7F0B585B001921C
:1038C00090B10F460446C1B100F07AFD064600BB38
:1038D000019B002B5ED04FF0500383F31188BFF3A0
:1038E0006F8FBFF34F8FFEE74FF0500383F31188C4
:1038F000BFF36F8FBFF34F8FFEE7036C002BE3D056
:103900004FF0500383F31188BFF36F8FBFF34F8FD6
:10391000FEE700263EE039462046FFF799FD013DCF
:10392000A563236923B901F0C7FA012005B0F0BDF2
:1039300004F1100000F0AAFC0028F4D04FF0E023BE
:103940004FF08052C3F8042DBFF34F8FBFF36F8F3A
:10395000E9E701F0B1FA0020E8E702A800F0DCFC9A
:10396000012621E0002384F8443029E0002384F874
:1039700045302BE02046FFF77DFD00F065FB09E0B8
:103980002046FFF777FD00F05FFB2046FFF718FDAC
:1039900000283FD101F06EFAA56B002DBBD1019B31
:1039A000002BD6D0002ED8D001F086FA00F0B2FA63
:1039B00001F060FA94F844305BB2B3F1FF3FD1D02C
:1039C00094F845305BB2B3F1FF3FCFD001F074FA09
:1039D00001A902A800F0ACFC0028D1D12046FFF7D5
:1039E000EFFC0028C6D0019904F1240000F01AFC75
:1039F0002046FFF73FFD00F027FB0028CAD14FF01B
:103A0000E0234FF08052C3F8042DBFF34F8FBFF374
:103A10006F8FBFE7002089E70023072B0CD8074AE8
:103A200052F833200AB10133F7E7044A42F8331061
:103A300002EBC30250607047704700BF4C04002087
:103A400070B504460D46164601F014FA94F8443059
:103A50005BB2B3F1FF3F0DD094F845305BB2B3F1E8
:103A6000FF3F0BD001F028FAA36B5BB12046FFF7B4
:103A700001FD70BD002384F84430EDE7002384F895
:103A80004530EFE73246294604F1240000F0E2FB1E
:103A9000ECE70000084B1B681B6823B9074B4FF08D
:103AA000FF321A607047044B1B68DB68DB685A689A
:103AB000024B1A60704700BFFC04002094040020F1
:103AC0002DE9F04780460D4617469946089EDDF8D9
:103AD00024A00A9C9200A521206BFCF785FB236B98
:103AE00007F18042013A03EB820727F00707A5B3ED
:103AF0004FF0000CBCF10F0F09D815F80C3004EB97
:103B00000C0282F8343013B10CF1010CF2E70023FF
:103B100084F84330372E00D93726E662E664002564
:103B20002565201DFFF703FC04F11800FFF7FFFBDC
:103B30002461C6F13806A6616462656584F8585050
:103B40004A464146384601F071F92060BAF1000F4B
:103B500001D0CAF80040BDE8F087002384F8343073
:103B6000D8E7000038B5002407E004EB8402930096
:103B70000E481844FFF7D0FB0134372CF5D90C4D13
:103B80002846FFF7C9FB0B4C2046FFF7C5FB0A4848
:103B9000FFF7C2FB0948FFF7BFFB0948FFF7BCFB73
:103BA000084B1D60084B1C6038BD00BF2805002075
:103BB0001405002000050020E4040020D0040020AB
:103BC000B8040020FC040020F804002010B50446CE
:103BD00001F050F9224A136801331360214B1B682E
:103BE0005BB1214B1B686BB91E4B1B68DA6AE36A39
:103BF0009A4207D81B4B1C6004E01A4B1C601368E8
:103C0000012B29D0194A1368013313606364E06AF9
:103C1000174B1B68984201D9154B186000EB8000C8
:103C2000211D144B03EB8000FFF784FB01F044F9E6
:103C30000D4B1B687BB10B4B1B68DA6AE36A9A4237
:103C400009D24FF0E0234FF08052C3F8042DBFF3A8
:103C50004F8FBFF36F8F10BDFFF784FFD2E700BF18
:103C6000B404002088090020A80400209804002043
:103C7000AC0400202805002010B5044690F8593007
:103C800063B1012B11D0022B0ED04FF0500383F300
:103C90001188BFF36F8FBFF34F8FFEE7006B01F00A
:103CA00057F8204601F054F810BD01F051F8FBE739
:103CB0000F4B1B68D3B110B501F0DCF80D4BDB687E
:103CC000DC68201DFFF75AFB0B4A1368013B1360A9
:103CD000074A1368013B136001F0EEF82046FFF736
:103CE000CBFF034B1B68002BE6D110BD704700BF14
:103CF000CC040020D0040020B404002008B5FFF755
:103D0000D7FF074B1B68012BF9D94FF0E0234FF089
:103D10008052C3F8042DBFF34F8FBFF36F8FEEE7D0
:103D20002805002070B504460D46174B1E68174B3A
:103D300018680430FFF722FBB4F1FF3F0DD0344484
:103D4000124B1B685C60A64210D9114B18680F4BD0
:103D500019680431FFF7F9FA70BD002DEFD00B4B55
:103D6000196804310B48FFF7E5FAF5E70A4B1868C4
:103D7000064B19680431FFF7E8FA084B1B68A342A9
:103D8000EAD9064B1C60E7E7B00400208809002050
:103D9000F8040020B8040020FC0400209404002053
:103DA00030B587B00B9C7CB10C9DB5B15C250495FA
:103DB000049D5C2D1AD04FF0500383F31188BFF39C
:103DC0006F8FBFF34F8FFEE74FF0500383F31188DF
:103DD000BFF36F8FBFF34F8FFEE74FF0500383F3B6
:103DE0001188BFF36F8FBFF34F8FFEE7049D0C9DCB
:103DF0002C63022485F8594000240394029505ACF5
:103E000001940A9C0094FFF75BFE0C98FFF7DEFE1E
:103E1000059807B030BD2DE9F04385B007468846C8
:103E200014461E46900000F011FF08B381465C2046
:103E300000F00CFF0546A8B1C0F83090002380F8D0
:103E40005930039302900D9B01930C9B00933346D2
:103E5000224641463846FFF733FE2846FFF7B6FEB6
:103E6000012007E0484600F073FF4FF0FF3001E00B
:103E70004FF0FF3005B0BDE8F083000010B588B00A
:103E800000240594069407AA06A905A800F064FE7C
:103E9000059B0293069B019300942346079A1749BA
:103EA0001748FFF77DFF174B1860C0B100F0F0FB1B
:103EB000012815D14FF0500383F31188BFF36F8FA2
:103EC000BFF34F8F104B4FF0FF321A600F4B0122A0
:103ED0001A600F4B00221A6001F056F803E0002030
:103EE000B0F1FF3F01D008B010BD4FF0500383F395
:103EF0001188BFF36F8FBFF34F8FFEE74451000867
:103F0000FD3C00089004002094040020A804002038
:103F1000B0040020024A136801331360704700BFE9
:103F20008C040020014B1868704700BFB0040020CB
:103F3000F8B53A4B1B68002B69D1394B1D68013528
:103F40001D60C5B9374B1B681B6843B14FF0500368
:103F500083F31188BFF36F8FBFF34F8FFEE7314AB2
:103F60001168314B186810601960304A13680133CA
:103F70001360FFF78FFD2E4B1B68AB423DD9002726
:103F80002C4B1B68DB6A03EB83039A002A4B9B587C
:103F9000012B00D90127294B1B68002B3CD001279E
:103FA0003AE001271F4B1B681B6843B31D4B1B687E
:103FB000DB68DC6863689D4226D3261D3046FFF728
:103FC000DDF9A36A1BB104F11800FFF7D7F9E36A22
:103FD0001B4A1268934201D9194A136003EB830309
:103FE0009A00314614481044FFF7A4F9E26A114BD5
:103FF0001B68DB6A9A42D4D2D4E70027D2E70C4B85
:104000004FF0FF321A60BBE7094A1360B8E70D4A68
:1040100013680133136000273846F8BD8C04002074
:10402000B0040020FC040020F80400209C040020C0
:10403000940400208809002028050020A004002006
:10404000AC040020A404002038B5354B1B6843B9EC
:104050004FF0500383F31188BFF36F8FBFF34F8F7F
:10406000FEE700F007FF2E4B1A68013A1A601B6842
:10407000002B4FD12B4B1B680BB900244BE00024C5
:10408000294B1B681BB3284BDB68DC6804F1180064
:10409000FFF774F9251D2846FFF770F9E06A234BF6
:1040A0001B68984201D9214B186000EB800029461B
:1040B0001F4B03EB8000FFF73DF9E26A1D4B1B68C5
:1040C000DB6A9A42DCD31C4B01221A60D8E70CB1A0
:1040D000FFF7E0FC194B1C6884B9174B1C68D4B17E
:1040E0004FF0E0234FF08052C3F8042DBFF34F8F01
:1040F000BFF36F8F01240EE0013C07D0FFF718FFDC
:104100000028F9D00C4B01221A60F5E70B4B002276
:104110001A60E2E7002400F0CFFE204638BD00BF61
:104120008C040020B4040020E4040020AC0400202F
:104130002805002088090020A0040020A4040020F5
:1041400010B5A8B10446104B1B6843B14FF05003A3
:1041500083F31188BFF36F8FBFF34F8FFEE7FFF735
:10416000D9FE00212046FFF7DDFDFFF76DFF48B9BE
:104170004FF0E0234FF08052C3F8042DBFF34F8F70
:10418000BFF36F8F10BD00BF8C040020204B1B6855
:104190001BB1204B01221A6070471E4B00221A608F
:1041A0001D4B1B6803EB83018A001C498A585AB9CE
:1041B0000BB1013BF6E74FF0500383F31188BFF3D7
:1041C0006F8FBFF34F8FFEE7084603EB83018A0032
:1041D000024451684968516003EB830C4FEA8C023A
:1041E0000832024491420BD003EB830291000B4A48
:1041F0000A445268D1680A4A1160074A136070473E
:10420000486862469100054A0A445060ECE700BFE6
:104210008C040020A0040020AC040020280500200D
:104220008809002058B110B50C46094A11681831A8
:10423000FFF78BF801212046FFF774FD10BD4FF00A
:10424000500383F31188BFF36F8FBFF34F8FFEE7E7
:104250008809002038B570B10D4614460A4A116825
:104260001831FFF767F80CB14FF0FF3521462846AB
:10427000FFF758FD38BD4FF0500383F31188BFF3AB
:104280006F8FBFF34F8FFEE78809002038B5C368F2
:10429000DC6824B304F118052846FFF76FF8184BC3
:1042A0001B682BBB251D2846FFF768F8E06A154BF5
:1042B0001B68984201D9134B186000EB8000294617
:1042C000114B03EB8000FFF735F8E26A0F4B1B68D8
:1042D000DB6A9A4211D901200D4B186038BD4FF0AE
:1042E000500383F31188BFF36F8FBFF34F8FFEE747
:1042F00029460848FFF71EF8E7E70020EEE700BF71
:104300008C040020AC04002028050020880900202F
:10431000A0040020E4040020034B1B680360034B4F
:104320001B684360704700BF9C040020B00400205D
:10433000D8B170B50C46054601B300F09BFD1B4B90
:1043400019686B68C81A2268B2F1FF3F27D0184E6F
:104350003668D5F800C0B44501D08B4224D98242DA
:1043600015D80023236001241AE04FF0500383F393
:104370001188BFF36F8FBFF34F8FFEE74FF05003ED
:1043800083F31188BFF36F8FBFF34F8FFEE75B1A84
:10439000134423602846FFF7BFFF002400E00024F9
:1043A00000F08AFD204670BD0124F9E7B00400202A
:1043B0009C040020014B01221A607047A0040020D9
:1043C000054B1B6833B1054B1B680BB100207047D0
:1043D0000220704701207047A80400208C040020B0
:1043E00000283BD038B504461E4B1B68834208D0DA
:1043F0004FF0500383F31188BFF36F8FBFF34F8FDC
:10440000FEE7036D43B94FF0500383F31188BFF308
:104410006F8FBFF34F8FFEE7013B0365C16AC26C2C
:1044200091421DD00BB1002038BD051D2846FEF776
:10443000A5FFE06CE062C0F13803A3610A4B1B6882
:10444000984201D9084B186000EB80002946074BC1
:1044500003EB8000FEF76EFF0120E5E700207047C8
:104460000020E1E788090020AC0400202805002096
:1044700038B505460C4600F0FDFC1A4B1B685B6D19
:104480002BB9184B1B68012283F85820ACB900F0F7
:1044900013FD00F0EFFC134B1B685C6D24B1DDB124
:1044A000104B1B6800225A650E4B1B68002283F8D4
:1044B000582000F001FD204638BD11462046FFF788
:1044C00031FC4FF0E0234FF08052C3F8042DBFF3CE
:1044D0004F8FBFF36F8FDAE7024B1B68621E5A657E
:1044E000E2E700BF88090020F8B5E0B10D460446B8
:1044F00000F0AAFDEFF311834FF0500282F3118810
:10450000BFF36F8FBFF34F8F1E4694F85830DBB266
:10451000022284F85820626D01326265012B0BD0B3
:1045200086F31188F8BD4FF0500383F31188BFF371
:104530006F8FBFF34F8FFEE7A36A43B14FF0500375
:1045400083F31188BFF36F8FBFF34F8FFEE7144BD8
:104550001B68FBB9271D3846FEF710FFE06A114BB8
:104560001B68984201D90F4B186000EB8000394658
:104570000D4B03EB8000FEF7DDFEE26A0B4B1B6880
:10458000DB6A9A42CCD90DB101232B60084B012282
:104590001A60C5E704F118010648FEF7CBFEECE708
:1045A0008C040020AC04002028050020880900208D
:1045B000A0040020E4040020064B1A6813682BB9FD
:1045C0000123036023B9D368186870470023F8E714
:1045D000002070478C0A002008B5416000619142BC
:1045E0000CD8D21A83699A4201D3012008BD011D5B
:1045F000094B1868FEF7A9FE0020F7E79A4201D29E
:10460000994206D2011D054B1868FEF79EFE002058
:10461000ECE70120EAE700BF880A00208C0A0020AE
:1046200030B583B000F026FC114B1B681BB100F0C5
:1046300043FC03B030BD0F4D2846FEF76DFE0E4C17
:104640002046FEF769FE0D4B1D600D4B1C600023DC
:1046500000930C4B0C4A10210A20FEF795FF044BE7
:1046600018600028E3D00949FFF7D6F9DFE700BF5B
:10467000840A0020A40A0020900A00208C0A00204E
:10468000880A00208C090020DC0900204C51000819
:1046900010B588B0FFF7C4FF124B1B68CBB10024E4
:1046A0000594069407AA06A905A800F061FA059BDF
:1046B0000293069B0193022300932346079A0A491B
:1046C0000A48FFF76DFB0A4B186010B1012008B0D3
:1046D00010BD4FF0500383F31188BFF36F8FBFF30A
:1046E0004F8FFEE7840A002054510008F549000866
:1046F000800A0020B8B19C4603461848006858B3A9
:1047000000B585B000910192029305291CDCFFF7EA
:1047100057FE022810D000231A4669460F48006849
:10472000FEF7A0FF15E04FF0500383F31188BFF3AD
:104730006F8FBFF34F8FFEE70023069A6946074845
:104740000068FEF78FFF04E0002362466946FFF72A
:104750004DF805B05DF804FB00207047840A002086
:1047600070B582B01B4B1B681A6862B3DB681E68A9
:10477000DC68251D2846FEF701FE236A204698477F
:1047800094F8283013F0040FECD0A36933449E4210
:1047900007D26360246129460E4B1868FEF7D5FDE9
:1047A000E0E7002100910B4632462046FFF7A2FFCA
:1047B0000028D7D14FF0500383F31188BFF36F8FD8
:1047C000BFF34F8FFEE7044A106802490860136088
:1047D00002B070BD8C0A0020880A002038B505465A
:1047E000FFF7A0FB0446074B1B68834205D8002354
:1047F0002B60044B1C60204638BDFFF7B1FF01233E
:104800002B60F6E77C0A002070B582B006460D46A4
:1048100017490968C968CC68201DFEF7AFFD94F8F8
:1048200028C01CF0040F08D12CF0010C84F828C01B
:10483000236A2046984702B070BDA16933462A46D4
:1048400031442046FFF7C8FE0028F1D00021009136
:104850000B4632462046FFF74DFF0028E8D14FF0C7
:10486000500383F31188BFF36F8FBFF34F8FFEE7C1
:104870008C0A002070B582B006460C46FFF74AFB52
:1048800001A8FFF7ABFF019B33BB0546E4B9B0427B
:1048900013D22246711B124B1868FFF7D1F8FFF7AD
:1048A000D3FBD8B94FF0E0234FF08052C3F8042D6A
:1048B000BFF34F8FBFF36F8F10E0FFF7C5FB2946A3
:1048C0003046FFF7A1FF09E0064A126812680AB9EC
:1048D0000124DEE71C46DCE7FFF7B6FB02B070BD43
:1048E000840A0020880A002010B588B002E0049BEA
:1048F000002B0FDA002204A93D4B1868FEF7DDFFFC
:10490000002873D0049B002BF1DA07990698059BC9
:104910009847ECE7069C636913B1201DFEF72EFD56
:1049200003A8FFF75BFF049B092BE3D8DFE803F044
:104930000505053037500505303794F8283043F029
:10494000010384F82830059BA169024619442046DA
:10495000FFF742FE0028CDD0236A2046984794F8FE
:10496000283013F0040FC5D0A269002100910B4636
:10497000059802442046FFF7BDFE0028BAD14FF04B
:10498000500383F31188BFF36F8FBFF34F8FFEE7A0
:1049900094F8283023F0010384F82830AAE794F82B
:1049A000283043F0010384F828300599A16131B122
:1049B0000346024601442046FFF70EFE9AE74FF0F9
:1049C000500383F31188BFF36F8FBFF34F8FFEE760
:1049D00094F8283013F0020F04D023F0010384F878
:1049E000283087E7204600F0B3F983E708B010BD10
:1049F000840A002000B583B001A8FFF7DDFD01990E
:104A0000FFF738FFFFF770FFF6E708B54FF0E02338
:104A10001B69FFF7D5FC012800D108BD00F08AFA18
:104A2000FBE70000EFF305832BB9064B186828B9A4
:104A300001221A6070476FF0050070474FF0FF3099
:104A4000704700BF70110020EFF3058373B90A4B64
:104A50001B68012B0DD110B50024084BDC77064BE9
:104A600002221A60FFF70AFA204610BD6FF0050017
:104A700070474FF0FF3070477011002000ED00E0EC
:104A8000F0B587B000240594EFF3058474BB68B3D8
:104A900022B31568936903B918235C1E372C49D8D3
:104AA000546814F0010F47D156696EB14FEA960C65
:104AB00094682CB1D7685B2F02D9176907B1C6B9C2
:104AC0002CB14FF0FF340EE04FF0800CF0E7D468CB
:104AD0008CB9146994B14FF0FF3404E015460024FA
:104AE00018234FF0800C012C0AD0ACB1059807B008
:104AF000F0BD0124F7E74FF0FF34F4E70024F2E7BC
:104B0000146992680292019400930B46624629460A
:104B1000FFF746F90590E9E705AA019200930B46D5
:104B20001FFA8CF22946FFF776F90128DED0002320
:104B30000593DBE70020DAE70020D8E708B5EFF3BC
:104B4000058333B908B9002008BDFFF7F9FA002042
:104B5000FAE76FF00500F7E7034B0360034B0B60C8
:104B600080231360704700BF14110020140F002031
:104B7000034B0360034B0B604FF48073136070476B
:104B8000B80E0020B80A0020124A12F0070F1ED0FB
:104B9000D11D21F00701C1F5805313440A460E4888
:104BA0000260002141601344083B23F007030B48D7
:104BB000036059601960991A51601360084B1960BD
:104BC000084B1960084B4FF000421A6070474FF4D1
:104BD0008053E4E7941100208C11002088110020FC
:104BE000801100208411002074110020154B1A46FA
:104BF0001B688342FBD3516802EB010C844509D04A
:104C0000416800EB010C634509D00360904218D065
:104C1000106070474068014451601046F0E710B4DE
:104C2000094C2468A3420AD05B68194441601368A8
:104C30001B680360904200D0106010BC7047046095
:104C4000F8E770478C1100208811002038B5044621
:104C5000FFF760F9384B1B68B3B1384B1B681C4237
:104C600050D1002C50D004F1080214F0070F02D0EC
:104C700022F007020832002A55D0314B1B689342BC
:104C800053D330490C6804E0FFF77EFFE5E7214687
:104C90001C466368934202D22368002BF7D1264B4F
:104CA0001B68A34243D00D68083523680B60636816
:104CB0009B1A102B10D9A01810F0070F08D04FF036
:104CC000500383F31188BFF36F8FBFF34F8FFEE75D
:104CD00043606260FFF78AFF626819490B689B1A9C
:104CE0000B60194909688B4201D217490B60134BBD
:104CF0001B681343636000232360144A1368013365
:104D0000136002E0002500E00025FFF79DF915F093
:104D1000070F0ED04FF0500383F31188BFF36F8F4E
:104D2000BFF34F8FFEE70025EFE70025EDE70025F5
:104D3000EBE7284638BD00BF881100207411002021
:104D4000841100208C110020801100207C11002093
:104D5000002834D038B50446A0F1080550F8043CCA
:104D6000174A1268134208D14FF0500383F3118899
:104D7000BFF36F8FBFF34F8FFEE750F8081C41B1B0
:104D80004FF0500383F31188BFF36F8FBFF34F8F42
:104D9000FEE723EA020340F8043CFFF7BBF854F8AF
:104DA000041C084A13680B4413602846FFF71EFFD3
:104DB000054A136801331360FFF746F938BD7047A1
:104DC00074110020841100207811002082B000238B
:104DD00001930D4B1B68B3F1FF3F08D04FF0500318
:104DE00083F31188BFF36F8FBFF34F8FFEE74FF050
:104DF000500383F31188BFF36F8FBFF34F8F019B75
:104E0000002BFCD002B070470C0000200648006860
:104E1000006880F3088862B661B6BFF34F8FBFF3B6
:104E20006F8F00DF00BF000008ED00E04FF08073DF
:104E300040F8043C21F0010140F8081C034B40F805
:104E40000C3C40F8202C4038704700BFCD4D000886
:104E5000074B19680868B0E8F00F80F30988BFF3C2
:104E60006F8F4FF0000080F311884EF00D0E7047E9
:104E7000880900204FF0500383F31188BFF36F8F30
:104E8000BFF34F8F0B4A136801331360012B00D01F
:104E900070474FF0E023D3F8043D13F0FF0FF7D035
:104EA0004FF0500383F31188BFF36F8FBFF34F8F21
:104EB000FEE700BF0C000020094B1B6843B94FF010
:104EC000500383F31188BFF36F8FBFF34F8FFEE75B
:104ED000013B034A13600BB983F31188704700BF8D
:104EE0000C00002000000000000000000000000096
:104EF000EFF30980BFF36F8F0D4B1A6820E9F00FB5
:104F000010602DE908404FF0500080F31188FFF742
:104F10003DF94FF0000080F31188BDE808401968A2
:104F20000868B0E8F00F80F30988BFF36F8F70470F
:104F30008809002008B54FF0500383F31188BFF3B0
:104F40006F8FBFF34F8FFEF7F3FF28B14FF0E023D1
:104F50004FF08052C3F8042D002383F3118808BD5D
:104F60004FF0E022002313619361054B1B68054954
:104F7000A1FB03139B09013B536107231361704796
:104F800008000020D34D621010B582B02A4B1A7869
:104F9000D2B20192FF221A701B78DBB28DF8033077
:104FA0009DF8033003F05003244A1370244B07226A
:104FB0001A6009E0224A1368013B13609DF8033030
:104FC0005B00DBB28DF803309DF8033013F0800FE7
:104FD000F0D11B4B1B68032B08D04FF0500383F319
:104FE0001188BFF36F8FBFF34F8FFEE71B02144A88
:104FF000136003F4E0631360019BDBB20E4A13708D
:105000004FF0E023D3F8202D42F47002C3F8202D96
:10501000D3F8202D42F07042C3F8202DFFF7A0FFF7
:105020000024084B1C60FFF7F1FEFFF7AFF8FFF715
:10503000CDFE204602B010BD00E400E09821002023
:10504000942100200C000020EFF305830F2B0FD9D3
:10505000114A9B5CDBB2114A12789A4208D94FF090
:10506000500383F31188BFF36F8FBFF34F8FFEE7B9
:105070004FF0E023D3F80C3D03F4E063084A1268D4
:10508000934208D94FF0500383F31188BFF36F8F19
:10509000BFF34F8FFEE77047F0E300E09821002058
:1050A00094210020FEF737F90B480C490C4A0023E5
:1050B00002E0D458C4500433C4188C42F9D3094ACE
:1050C000094C002301E013600432A242FBD3FBF73A
:1050D00063F8FBF7A9FC70470000002010000020D7
:1050E00038520008100000209C210020FEE700003C
:1050F000F8B500BFF8BC08BC9E467047F8B500BFC5
:08510000F8BC08BC9E46704794
:1051080064656661756C745461736B005461736B8C
:105118005F554152545F5258000000005472616A52
:10512800506C616E00000000536166657479000080
:1051380053746174757354580000000049444C4519
:1051480000000000546D725100000000546D722080
:1051580053766300085100080000000000000000BA
:10516800000000000000000000020000180000001D
:105178000000000000000000000000000400000023
:10518800080000000C000000245100080000000086
:105198000000000000000000000000000004000003
:1051A800200000000000000000000000305100084E
:1051B80000000000000000000000000000000000E7
:1051C80000020000200000000000000000000000B5
:1051D8003851000800000000000000000000000036
:1051E800000000000004000018000000000000009B
:1051F8000000000001020000020304050607080978
:105208000A0B0C0D0E0F1010000000000102030421
:10521800000000000000000001020304060708095E
:0852280060B0FF7F01000000EF
:0452300079010008F8
:04523400510100081C
:10523800010000001000000000127A00AAAAAAAA21
:04000005080050A5FA
:00000001FF
