:020000040800F2
:100000000050002081270008890A00088B0A000898
:100010008D0A00088F0A0008910A000800000000FD
:10002000000000000000000000000000E1260008C1
:10003000930A00080000000011270008C1260008EC
:10004000C9270008C9270008C9270008C9270008D0
:10005000C9270008C9270008C9270008C9270008C0
:10006000C9270008C9270008C9270008C9270008B0
:10007000C9270008C9270008950A0008A50A000832
:10008000C9270008C9270008C9270008C927000890
:10009000C9270008C9270008C9270008C927000880
:1000A000C9270008C9270008C9270008C927000870
:1000B000C9270008C9270008B50A0008C927000891
:1000C000C9270008C9270008C9270008C927000850
:1000D000C9270008C50A0008C9270008C927000861
:1000E000C9270008C9270008C92700080000000028
:1000F0000000000000000000000000000000000000
:0C01000000000000000000005FF808F1A3
:1001100010B5054C237833B9044B13B10448AFF341
:1001200000800123237010BD0C000020000000009F
:100130002428000808B5034B1BB103490348AFF35B
:10014000008008BD000000001000002024280008E6
:100150004FF0FF0C1CEAD0521EBF1CEAD15392EAAA
:100160000C0F93EA0C0F6FD01A4480EA010C400286
:1001700018BF5FEA41211ED04FF0006343EA5010E0
:1001800043EA5111A0FB01310CF00040B1F5000F22
:100190003EBF490041EAD3715B0040EA010062F1D1
:1001A0007F02FD2A1DD8B3F1004F40EBC25008BFBB
:1001B00020F00100704790F0000F0CF0004C08BFD9
:1001C00049024CEA502040EA51207F3AC2BFD2F1A6
:1001D000FF0340EAC250704740F400004FF00003B4
:1001E000013A5DDC12F1190FDCBF00F000407047EE
:1001F000C2F10002410021FA02F1C2F1200200FA2C
:1002000002FC5FEA310040F1000053EA4C0308BFF2
:1002100020EADC70704792F0000F00F0004C02BF43
:10022000400010F4000F013AF9D040EA0C0093F0BE
:10023000000F01F0004C02BF490011F4000F013B18
:10024000F9D041EA0C018FE70CEAD15392EA0C0F86
:1002500018BF93EA0C0F0AD030F0004C18BF31F0F1
:10026000004CD8D180EA010000F00040704790F0C7
:10027000000F17BF90F0004F084691F0000F91F06B
:10028000004F14D092EA0C0F01D142020FD193EA31
:100290000C0F03D14B0218BF084608D180EA0100B9
:1002A00000F0004040F0FE4040F40000704740F095
:1002B000FE4040F44000704780F0004002E000BF84
:1002C00081F0004142001FBF5FEA410392EA030F41
:1002D0007FEA226C7FEA236C6AD04FEA1262D2EB8B
:1002E0001363C1BFD218414048404140B8BF5B4290
:1002F000192B88BF704710F0004F40F4000020F029
:100300007F4018BF404211F0004F41F4000121F03E
:100310007F4118BF494292EA030F3FD0A2F1010288
:1003200041FA03FC10EB0C00C3F1200301FA03F1C6
:1003300000F0004302D5494260EB4000B0F5000FE9
:1003400013D3B0F1807F06D340084FEA310102F1A8
:100350000102FE2A51D2B1F1004F40EBC25008BF5A
:1003600020F0010040EA03007047490040EB000024
:10037000013A28BFB0F5000FEDD2B0FA80FCACF125
:10038000080CB2EB0C0200FA0CF0AABF00EBC25052
:1003900052421843BCBFD0401843704792F0000F40
:1003A00081F4000106BF80F400000132013BB5E793
:1003B0004FEA41037FEA226C18BF7FEA236C21D009
:1003C00092EA030F04D092F0000F08BF084670476E
:1003D00090EA010F1CBF0020704712F07F4F04D13C
:1003E000400028BF40F00040704712F100723CBF4F
:1003F00000F50000704700F0004343F0FE4040F479
:10040000000070477FEA226216BF08467FEA236336
:100410000146420206BF5FEA412390EA010F40F421
:10042000800070474FF0000304E000BF10F000436D
:1004300048BF40425FEA000C08BF704743F0964354
:1004400001464FF000001CE050EA010208BF70476F
:100450004FF000030AE000BF50EA010208BF7047F6
:1004600011F0004302D5404261EB41015FEA010C0B
:1004700002BF84460146002043F0B64308BFA3F103
:100480008053A3F50003BCFA8CF2083AA3EBC253E5
:1004900010DB01FA02FC634400FA02FCC2F1200204
:1004A000BCF1004F20FA02F243EB020008BF20F03B
:1004B0000100704702F1200201FA02FCC2F12002A1
:1004C00050EA4C0021FA02F243EB020008BF20EA96
:1004D000DC7070474FF0FF3C06E000BF4FF0010CAE
:1004E00002E000BF4FF0010C4DF804CD4FEA40028E
:1004F0004FEA41037FEA226C18BF7FEA236C11D0D8
:1005000001B052EA530C18BF90EA010F58BFB2EB8A
:10051000030088BFC81738BF6FEAE17018BF40F00A
:10052000010070477FEA226C02D15FEA402C05D1BE
:100530007FEA236CE4D15FEA412CE1D05DF8040B43
:10054000704700BF844608466146FFE70FB5FFF7D6
:10055000C9FF002848BF10F1000F0FBD4DF808ED8E
:10056000FFF7F4FF0CBF012000205DF808FB00BF7F
:100570004DF808EDFFF7EAFF34BF012000205DF8D9
:1005800008FB00BF4DF808EDFFF7E0FF94BF012026
:1005900000205DF808FB00BF4DF808EDFFF7D2FF23
:1005A00094BF012000205DF808FB00BF4DF808ED66
:1005B000FFF7C8FF34BF012000205DF808FB00BF33
:1005C00042000ED2B2F1FE4F0BD34FF09E03B3EBBD
:1005D000126209D44FEA002343F0004323FA02F0E9
:1005E00070474FF00000704712F1610F01D14202D5
:1005F00002D14FF0FF3070474FF00000704700BF4E
:1006000008B50268034B9A4200D008BD00F04CFECA
:10061000FBE700BF0008004072B6FEE700B591B0EE
:100620002822002106A802F0F5F800230193029386
:10063000039304930593012206924FF480330793AA
:100640000A9202220D920E934FF4E0130F9306A824
:1006500000F066FE80B90F2301930221029100236E
:1006600003934FF480620492059301A801F08AF885
:1006700020B911B05DF804FBFFF7CEFFFFF7CCFF08
:1006800008B500F0FFFDFFF7C9FF00F01DF800F00E
:1006900033F800F049F900F08BF800F0E1F900F0D0
:1006A0002DF90021002000F0F3F84FF47A7000F0EB
:1006B0000DFE0449002000F0EBF84FF47A7000F0D2
:1006C00005FEEEE70000344382B00A4B9A6942F01F
:1006D00020029A619A6902F020020092009A9A69B7
:1006E00042F004029A619B6903F004030193019BA9
:1006F00002B070470010024000B583B00E4B5A693B
:1007000042F001025A615B6903F001030193019B0E
:10071000002205210E2001F09BFB0E2001F0D0FBF2
:10072000002205210F2001F093FB0F2001F0C8FBF0
:1007300003B05DF804FB00BF001002400368B3F192
:10074000804F00D0704782B003F50433DA6942F07D
:100750000102DA61DB6903F001030193019B02B03E
:100760007047000000B587B0002302930393049301
:1007700005930368B3F1804F02D007B05DF804FB26
:1007800003F504339A6942F004029A619B6903F00D
:1007900004030193019B0F23029302230393059308
:1007A00002A9024801F0E8F8E7E700BF00080140AD
:1007B00000B58BB000230893099301930293039330
:1007C000049305930693079326484FF080420260F6
:1007D00047224260836044F61F62C2600361802347
:1007E000836100F0CDFB58BB00230893099308A94F
:1007F0001C4800F00FFD30BB6023019300220292E1
:100800000392059201A9174800F018FCF0B90422E0
:100810000DEB0201134800F011FCD0B9082201A928
:10082000104800F00BFCB8B90C2201A90D4800F0EB
:1008300005FCA0B90B48FFF795FF0BB05DF804FB72
:10084000FFF7EAFED0E7FFF7E7FED5E7FFF7E4FEA4
:10085000DDE7FFF7E1FEE1E7FFF7DEFEE4E7FFF7A4
:10086000DBFEE7E72800002010B504460021FFF773
:100870007FFE30B905492046FFF798FE18B920469B
:1008800010BD0020FCE70148FAE700BF0000344338
:1008900038B50446032815D80846FFF7E5FF054696
:1008A0001149FFF755FC1149FFF70CFDFFF788FED2
:1008B0000F4B53F8243033B90E4B1B6858630E4B63
:1008C00043F8245038BD042B05D0082B07D0094B22
:1008D0001B681864F3E7074B1B689863EFE7054B49
:1008E0001B68D863EBE700BF1CC731410000FA4327
:1008F0003C280008280000207000002010B50024CB
:100900000BE0074B53F82410064800F015FC0021BB
:100910002046FFF7BDFF0134E4B2032CF1D910BD2E
:100920003C2800082800002008B50D480D4B036046
:100930004FF46123436000238360C36003610C2292
:1009400042618361C36101F071FB30B9044B1A68E5
:10095000D36843F01003D36008BDFFF75DFEF5E7F1
:10096000080100200038014070B586B000230293D2
:100970000393049305930268334B9A4201D006B067
:1009800070BD044603F558439A6942F480429A6167
:100990009A6902F480420092009A9A6942F0040235
:1009A0009A619B6903F004030193019B4FF4007368
:1009B00002930223039303230593244E02A9304696
:1009C00000F0DAFF4FF4806302930025039504954D
:1009D00002A9304600F0D0FF1D481E4B0360456061
:1009E00085608023C3600561456185614FF4805354
:1009F000C36101F0D3F800BB154BE3635C6216489A
:100A0000164B036010234360002383608022C26082
:100A10000361436183614FF48053C36101F0BEF809
:100A200070B90D4BA3635C6200220521252001F003
:100A30000FFA252001F044FAA1E7FFF7EDFDDBE70F
:100A4000FFF7EAFDEDE700BF003801400008014074
:100A50008000002058000240C400002044000240F2
:100A600008B50748074B03600423436040F2712335
:100A7000836001F0DBFC00B908BDFFF7CDFDFBE7AB
:100A80005001002000300040FEE7FEE7FEE7FEE7F1
:100A9000FEE7704708B5024801F026F908BD00BF1F
:100AA000C400002008B5024801F01EF908BD00BFCF
:100AB0008000002008B5024800F044F908BD00BFDE
:100AC0005C01002008B5024801F06CFB08BD00BFC6
:100AD0000801002000B583B0114B9A6942F0010271
:100AE0009A619A6902F001020092009ADA6942F072
:100AF0008052DA61DB6903F080530193019B00228D
:100B00000F216FF0010001F0A3F9064A536823F0AA
:100B1000E06343F08063536003B05DF804FB00BF03
:100B2000001002400000014030B589B00446214B5E
:100B3000DA6942F00402DA61DB6903F0040301932D
:100B4000019B02A903A800F0F9FE069BCBB900F0B7
:100B5000D5FE03461848A0FB03239B0C013B174816
:100B6000174A026040F2E732C2604360002303612B
:100B70008360836100F0D8F9054630B1284609B09A
:100B800030BD00F0BBFE4300E4E70C4800F0A2F8E3
:100B900005460028F2D11E2001F092F90F2C01D950
:100BA0000125EBE7002221461E2001F051F9054BFB
:100BB0001C60E3E70010024083DE1B435C01002061
:100BC000000800400400002070B4036A026A22F0AA
:100BD000010202624668826922F073020C6844EAEC
:100BE000020523F002028B6813430D4CA04209D08A
:100BF0000B4CA0420DD0466085614A684263036297
:100C000070BC704723F00803CA68134323F0040341
:100C1000EEE726F440764A6932438E691643EAE7E6
:100C2000002C014030B4036A026A22F4807202622E
:100C30004568C26922F073020C68224323F40073F2
:100C40008C6843EA04230F4CA04209D00D4CA0420B
:100C50000ED04560C2614A68C263036230BC70470F
:100C600023F40063CC6843EA042323F48063EDE7B4
:100C700025F440554C6945EA04158C6945EA04158C
:100C8000E7E700BF002C014030B4036A026A22F497
:100C9000805202624468C26922F4E6420D6842EA68
:100CA000052223F400538D6843EA0533074DA8421B
:100CB00006D04460C2614A680264036230BC704777
:100CC00024F480444D6944EA8514F2E7002C014085
:100CD0007047000090F83D30DBB2012B27D1022392
:100CE00080F83D300268D36843F00103D3600368A5
:100CF000114A934210D0B3F1804F0DD0A2F5943237
:100D0000934209D002F58062934205D01A6842F0FE
:100D100001021A60002070479A6802F00702062A52
:100D200007D01A6842F001021A60002070470120C3
:100D300070470020704700BF002C0140704770478B
:100D40007047704770B504460368DE681D6915F08A
:100D5000020F10D016F0020F0DD06FF002021A61D0
:100D60000123037703689B6913F0030F5ED0FFF73D
:100D7000E6FF0023237715F0040F12D016F0040FBE
:100D80000FD023686FF004021A61022323772368CF
:100D90009B6913F4407F4FD02046FFF7D0FF00231C
:100DA000237715F0080F12D016F0080F0FD0236824
:100DB0006FF008021A61042323772368DB6913F0BC
:100DC000030F40D02046FFF7BAFF0023237715F02A
:100DD000100F12D016F0100F0FD023686FF0100212
:100DE0001A61082323772368DB6913F4407F31D02D
:100DF0002046FFF7A4FF0023237715F0010F02D050
:100E000016F0010F2DD115F0800F02D016F0800FD3
:100E10002FD115F0400F02D016F0400F31D115F050
:100E2000200F02D016F0200F33D170BDFFF786FFE0
:100E30002046FFF785FF9CE72046FFF77FFF20460F
:100E4000FFF77EFFABE72046FFF778FF2046FFF76E
:100E500077FFBAE72046FFF771FF2046FFF770FFE4
:100E6000C9E723686FF001021A612046FFF7C8FB4B
:100E7000C9E723686FF080021A61204600F001FA8A
:100E8000C7E723686FF040021A612046FFF759FF59
:100E9000C5E723686FF020021A61204600F0F0F9E0
:100EA000C3E7000003681F4A90420AD0B0F1804FA8
:100EB00007D0A2F59432904203D002F580629042AE
:100EC00003D123F070034A681343164A90420AD0B4
:100ED000B0F1804F07D0A2F59432904203D002F5D2
:100EE0008062904203D123F44073CA68134323F015
:100EF00080034A69134303608B68C3620B68836293
:100F0000084B98420AD001234361036913F0010F93
:100F100003D0036923F00103036170470B69036386
:100F2000F1E700BF002C014040B310B5044690F833
:100F30003D30F3B1022384F83D30214651F8040BD3
:100F4000FFF7B0FF012384F8463084F83E3084F880
:100F50003F3084F8403084F8413084F8423084F8DF
:100F6000433084F8443084F8453084F83D30002024
:100F700010BD80F83C30FFF7ABFEDBE70120704787
:100F800040B310B5044690F83D30F3B1022384F825
:100F90003D30214651F8040BFFF784FF012384F80C
:100FA000463084F83E3084F83F3084F8403084F88E
:100FB000413084F8423084F8433084F8443084F877
:100FC000453084F83D30002010BD80F83C30FFF7FC
:100FD000B5FBDBE70120704730B4036A026A22F0F8
:100FE000100202624468826922F4E6420D6842EA15
:100FF000052223F020038D6843EA05130E4DA84215
:1010000009D00D4DA8420ED0446082614A688263C7
:10101000036230BC704723F08003CD6843EA0513B8
:1010200023F04003EDE724F440644D6944EA85046D
:101030008D6944EA8504E7E7002C014038B590F853
:101040003C30012B66D004460D46012380F83C302D
:101050000C2A5AD8DFE802F0075959591B59595937
:101060003059595944000068FFF7AEFD2268936972
:1010700043F0080393612268936923F004039361AA
:101080002268936929690B43936100203EE0006860
:10109000FFF7A2FF2268936943F40063936122681B
:1010A000936923F48063936122689369296943EA11
:1010B00001239361002029E00068FFF7B3FD226857
:1010C000D36943F00803D3612268D36923F0040392
:1010D000D3612268D36929690B43D361002015E0ED
:1010E0000068FFF7D1FD2268D36943F40063D36140
:1010F0002268D36923F48063D3612268D3692969A4
:1011000043EA0123D361002000E00120002384F89A
:101110003C3038BD0220FCE701F01F01012303FA37
:1011200001FC036A23EA0C030362036A02FA01F179
:101130000B4303627047000010B50446084651BBDC
:1011400094F83E30DBB2013B18BF0123002B5BD18A
:10115000002839D1022384F83E300122014620685C
:10116000FFF7DAFF23682A4A93423DD02368284AD2
:1011700093423ED0B3F1804F3BD0A2F594329342DC
:1011800037D002F58062934233D01A6842F00102F0
:101190001A60002039E0042908D008290DD094F8FD
:1011A0004130DBB2013B18BF0123CFE794F83F3059
:1011B000DBB2013B18BF0123C8E794F84030DBB233
:1011C000013B18BF0123C1E7042805D0082807D038
:1011D000022384F84130C0E7022384F83F30BCE7A3
:1011E000022384F84030B8E75A6C42F400425A6453
:1011F000BCE79A6802F00702062A07D01A6842F094
:1012000001021A60002000E0012010BD0020FCE770
:10121000002C014090F83C30012B2CD010B401235D
:1012200080F83C30022380F83D3003685A689C689F
:1012300022F0700C0A6842EA0C025A6003680F4AF6
:1012400093420AD0B3F1804F07D0A2F59432934273
:1012500003D002F58062934204D124F080044A68EE
:1012600014439C60012380F83D30002380F83C301B
:10127000184610BC70470220704700BF002C014088
:101280007047704708B5074A136843F010031360AE
:10129000032000F0CBFD0F20FFF746FCFFF71AFC00
:1012A000002008BD00200240034A1168034B1B7850
:1012B0000B441360704700BFA40100200000002011
:1012C000014B1868704700BFA401002038B50446E0
:1012D000FFF7F6FF0546B4F1FF3F02D0044B1B7841
:1012E0001C44FFF7EDFF401BA042FAD338BD00BFFE
:1012F0000000002082B0084B1B68084AA2FB0323B1
:101300005B0A00FB03F3019300BF019B5A1E01928D
:10131000002BF9D102B0704708000020D34D6210B5
:10132000002800F0F18170B582B00446036813F024
:10133000010F2CD0994B5B6803F00C03042B1DD0DC
:10134000964B5B6803F00C03082B12D06368B3F56F
:10135000803F41D0002B55D103F1804303F5043386
:101360001A6822F480321A601A6822F480221A6005
:1013700037E08A4B5B6813F4803FE7D0874B1B68EC
:1013800013F4003F03D06368002B00F0BF81236893
:1013900013F0020F75D0814B5B6813F00C0F5FD018
:1013A0007E4B5B6803F00C03082B54D02369002BA1
:1013B00000F08A807A4B01221A60FFF781FF054610
:1013C000764B1B6813F0020F75D1FFF779FF401BB6
:1013D0000228F5D903209EE1704A136843F4803354
:1013E0001360636843B3FFF76BFF05466B4B1B68E5
:1013F00013F4003FCBD1FFF763FF401B6428F5D9FE
:10140000032088E1B3F5A02F09D0644B1A6822F4B9
:1014100080321A601A6822F480221A60E1E703F130
:101420008043A3F53C331A6842F480221A601A689C
:1014300042F480321A60D4E7FFF742FF0546574B6B
:101440001B6813F4003FA2D0FFF73AFF401B64284B
:10145000F5D903205FE1514B5B6813F4803FA5D1C0
:101460004E4B1B6813F0020F03D02369012B40F091
:101470004F814A4A136823F0F803616943EAC103C4
:101480001360236813F0080F33D0A369002B5CD0DE
:10149000434B0122C3F88024FFF712FF05463F4B60
:1014A0005B6A13F0020F21D1FFF70AFF401B0228ED
:1014B000F5D903202FE1394A136823F0F803616955
:1014C00043EAC1031360DCE7354B00221A60FFF7E3
:1014D000F7FE0546314B1B6813F0020FD1D0FFF722
:1014E000EFFE401B0228F5D9032014E10120FFF78D
:1014F00001FF236813F0040F00F09680274BDB698F
:1015000013F0805F34D1254BDA6942F08052DA6102
:10151000DB6903F080530193019B0125214B1B687C
:1015200013F4807F26D0E368012B3DD0002B53D1EC
:1015300003F1804303F504331A6A22F001021A62B0
:101540001A6A22F004021A6233E0154B0022C3F833
:101550008024FFF7B5FE0546104B5B6A13F0020FBF
:10156000C7D0FFF7ADFE401B0228F5D90320D2E01B
:101570000025D3E70B4A136843F480731360FFF729
:101580009FFE0646074B1B6813F4807FCBD1FFF705
:1015900097FE801B6428F5D90320BCE000100240B0
:1015A00000004242007000405F4A136A43F00103AA
:1015B0001362E36833B3FFF783FE06465A4B1B6A98
:1015C00013F0020F2FD1FFF77BFE801B41F288330F
:1015D0009842F3D903209EE0052B09D0524B1A6A9A
:1015E00022F001021A621A6A22F004021A62E0E78B
:1015F0004D4B1A6A42F004021A621A6A42F0010262
:101600001A62D6E7FFF75CFE0646474B1B6A13F0EB
:10161000020F08D0FFF754FE801B41F28833984236
:10162000F3D9032077E0E5B9E369002B72D03E4A95
:10163000526802F00C02082A56D0022B17D03B4BFE
:1016400000221A66FFF73CFE0446374B1B6813F076
:10165000007F47D0FFF734FE001B0228F5D9032096
:1016600059E0314AD36923F08053D361DCE72F4B33
:1016700000221A66FFF724FE05462B4B1B6813F069
:10168000007F06D0FFF71CFE401B0228F5D903207F
:1016900041E0236AB3F5803F1AD023494B6823F415
:1016A0007413226A606A024313434B601F4B01228A
:1016B0001A66FFF705FE04461B4B1B6813F0007FFC
:1016C0000ED1FFF7FDFD001B0228F5D9032022E013
:1016D000154A536823F40033A1680B435360DCE7D9
:1016E000002018E0002016E0012B16D00E4B5B689E
:1016F00003F48031226A914211D103F47013626ABB
:1017000093420ED1002006E001207047012002E044
:10171000012000E0002002B070BD0120FBE70120A5
:10172000F9E70120F7E700BF001002400000424245
:101730000F4B5B6803F00C02082A01D00D4870477C
:10174000C3F383420C49885C13F4803F0BD0084BF1
:101750005B68C3F34043094AD35C064A02FB00F0CE
:10176000B0FBF3F07047064B03FB00F0704700BF7F
:101770000010024000127A004C2800085C28000883
:1017800000093D00002800F0A08070B50D46044619
:10179000524B1B6803F007038B420BD24F4A13686E
:1017A00023F007030B431360136803F007038B4216
:1017B00040F08D80236813F0020F17D013F0040F50
:1017C00004D0474A536843F4E0635360236813F03E
:1017D000080F04D0424A536843F460535360404AB0
:1017E000536823F0F003A1680B435360236813F0A0
:1017F000010F31D06368012B20D0022B25D0384A4D
:10180000126812F0020F64D035494A6822F00302D0
:1018100013434B60FFF754FD0646314B5B6803F002
:101820000C036268B3EB820F16D0FFF749FD801BF3
:1018300041F288339842F0D9032045E0284A1268E3
:1018400012F4003FE0D101203EE0254A126812F078
:10185000007FD9D1012037E0204B1B6803F007033C
:10186000AB420AD91D4A136823F007032B431360C8
:10187000136803F00703AB422DD1236813F0040F64
:1018800006D0174A536823F4E063E1680B435360C2
:10189000236813F0080F07D0114A536823F46053EC
:1018A000216943EAC1035360FFF742FF0C4B5B68B9
:1018B000C3F303130B4AD35CD8400B4B18600B4B9C
:1018C0001868FFF731F9002070BD01207047012032
:1018D000FAE70120F8E70120F6E700BF0020024008
:1018E00000100240602800080800002004000020CA
:1018F000014B1868704700BF0800002008B5FFF7CB
:10190000F7FF044B5B68C3F30223034AD35CD84060
:1019100008BD00BF001002407028000808B5FFF79E
:10192000E7FF044B5B68C3F3C223034AD35CD84090
:1019300008BD00BF00100240702800080F2303609C
:101940000B4B5A6802F0030242605A6802F0F00240
:1019500082605A6802F4E062C2605B68DB0803F4EC
:10196000E0630361034B1B6803F007030B607047E0
:10197000001002400020024070B582B00024A4464E
:10198000A6E0804DAA4210D007D97F4DAA420CD0C4
:1019900005F58035AA4208D013E0A5F58015AA42C6
:1019A00003D005F57025AA4207D18A68002A58D0CD
:1019B000012A51D04361082403E0A5F58015AA420D
:1019C000F3D0BEF1FF0F4ED80646BEF1FF0F4CD844
:1019D0004FEA8C0233680F25954023EA050304FA89
:1019E00002F2134333604B6813F0805F6ED0674B95
:1019F0009A6942F001029A619B6903F00103019325
:101A0000019B4FEA9C02951C614B53F825600CF03A
:101A100003039D000F23AB4026EA03065D4B98426B
:101A200029D003F58063984200F08E8003F580632F
:101A3000984200F08B8003F58063984219D004230C
:101A40001AE0CC68BDE7CC680434BAE7CC68083447
:101A5000B7E7CC680C34B4E703610824B1E700248D
:101A6000AFE70424ADE7061DAFE7ACF10802920032
:101A7000B0E7032300E00023AB4033430232444D80
:101A800045F822304B6813F4801F61D0424A9368B6
:101A900043EA0E0393604B6813F4001F5ED03E4A86
:101AA000D36843EA0E03D3604B6813F4003F5BD066
:101AB000394A536843EA0E0353604B6813F4803F7E
:101AC00058D0354A136843EA0E0313600CF1010C39
:101AD0000A6832FA0CF353D0012303FA0CF302EA3A
:101AE000030E33EA0202F1D14A68122A3FF649AFE7
:101AF000122A3FF666AF01A555F822F0AB1900088F
:101B0000431A00084D1A00085F1A0008C31900089C
:101B1000C3190008C3190008C3190008C319000835
:101B2000C3190008C3190008C3190008C319000825
:101B3000C3190008C3190008C3190008C319000815
:101B4000471A0008531A0008012395E7022393E778
:101B5000114A936823EA0E0393609CE70E4AD36808
:101B600023EA0E03D3609FE70B4A536823EA0E0370
:101B70005360A2E7084A136823EA0E031360A5E73F
:101B800002B070BD000022100000311000100240B1
:101B900000000140000801400004014060B310B49F
:101BA00002460168154B0B441548A0FB03031B09B3
:101BB0009B001364134BD363022382F8213008681F
:101BC00020F47F5020F03000536894682343D46899
:101BD0002343146923435469234394692343D469F9
:101BE000234303430B6000209063012382F82130DC
:101BF00082F8200010BC704701207047F8FFFDBF3D
:101C0000CDCCCCCC0000024090F82130DBB2022BCE
:101C100006D004238363002380F82030012070471E
:101C20000268136823F00E0313600268136823F040
:101C300001031360036CC16B012202FA03F34B60D2
:101C400080F82120002380F82030184670470000DB
:101C500008B590F82130DBB2022B03D00423836354
:101C6000012008BD0268136823F00E0313600268A8
:101C7000136823F0010313600368194A934214D0D8
:101C8000143293421FD0143293421ED01432934226
:101C90001ED0143293421ED01432934202D04FF021
:101CA000807203E04FF4801200E001220D4B5A6075
:101CB000012380F82130002380F82030436B6BB182
:101CC00098470020CDE71022F0E74FF48072EDE74F
:101CD0004FF48052EAE74FF48032E7E70020C0E794
:101CE000080002400000024038B5C36B1A6804685F
:101CF0002568016C04238B40134235D015F0040F86
:101D000032D0236813F0200F03D1236823F004039B
:101D100023600368434A934214D01432934218D08C
:101D20001432934217D01432934217D01432934294
:101D300017D01432934202D04FF0806203E04FF488
:101D4000800200E00422384B5A60C36A03B198470E
:101D500038BD4022F7E74FF48062F4E74FF4804249
:101D6000F1E74FF48022EEE702238B4013423CD090
:101D700015F0020F39D0236813F0200F06D1236825
:101D800023F00A032360012380F821300368254AE9
:101D9000934214D0143293421CD0143293421BD07D
:101DA000143293421BD0143293421BD0143293420C
:101DB00002D04FF0007203E04FF4001200E0022264
:101DC000194B5A60002380F82030836A002BBFD063
:101DD0009847BDE72022F3E74FF40072F0E74FF495
:101DE0000052EDE74FF40032EAE7082303FA01F16D
:101DF0001142ADD015F0080FAAD0236823F00E03CE
:101E00002360026CC16B012303FA02F24A60836310
:101E100080F82130002380F82030036B002B97D00E
:101E2000984795E70800024000000240074AD3683F
:101E300023F4E0631B041B0C000200F4E060034386
:101E400043F0BF6343F40033D360704700ED00E01C
:101E500000B5194BDB68C3F30223C3F1070CBCF1D7
:101E6000040F28BF4FF0040C03F1040EBEF1060F5F
:101E700018D9033B4FF0FF3E0EFA0CFC21EA0C018F
:101E800099400EFA03F322EA0303194300280BDBFF
:101E90000901C9B200F1604000F5614080F800130B
:101EA0005DF804FB0023E5E700F00F000901C9B26B
:101EB000024B1954F4E700BF00ED00E014ED00E020
:101EC000002807DB00F01F02400901239340024A6B
:101ED00042F82030704700BF00E100E0026802F1E4
:101EE0000C0353E8003F23F490730C3242E80031B6
:101EF0000029F3D1026802F1140353E8003F23F0F4
:101F00000103143242E800310029F3D1036B012BA5
:101F100005D0202380F84230002303637047026815
:101F200002F10C0353E8003F23F010030C3242E8A7
:101F300000310029F3D1ECE790F84130DBB2212BDE
:101F400001D0022070478368B3F5805F17D0036A21
:101F50005A1C02621A7803685A60C38C9BB2013B18
:101F60009BB2C3844BB90268D36823F08003D3606B
:101F70000268D36843F04003D360002070470369D0
:101F8000002BE4D1036A1B880268C3F30803536083
:101F9000036A02330362E0E710B50446026813697E
:101FA00023F44053C1680B431361836802691343F0
:101FB00042691A430168CB6823F4B05323F00C0341
:101FC0001343CB600268536923F4407381690B4368
:101FD00053610268134B9A4220D0FFF78FFC0246F0
:101FE00002EB820202EB820263689B00B2FBF3F217
:101FF0000D48A0FB02314909642303FB11231B0197
:102000003233A0FB03235B0903F0F00202EB011261
:1020100003F00F03216813448B6010BDFFF77EFCB3
:102020000246DDE7003801401F85EB5160B310B573
:10203000044690F8413013B3242384F841302268D9
:10204000D36823F40053D3602046FFF7A5FF22682E
:10205000136923F4904313612268536923F02A0320
:1020600053612268D36843F40053D3600020606456
:10207000202384F8413084F84230606310BD80F83A
:102080004030FEF771FCD7E701207047704708B574
:102090000168CA6822F04002CA60202280F841200C
:1020A000FFF7F4FF002008BD7047704708B5406A8D
:1020B0000023C385C384FFF7F8FF08BD704790F87D
:1020C0004230DBB2222B69D18368B3F5805F4FD0F9
:1020D000826AB3F5805F04D0002B56D10369002BD0
:1020E00053D103685B681370836A01338362C38DC5
:1020F0009BB2013B9BB2C385002B51D100B583B08D
:102100000268D36823F02003D3600268D36823F405
:102110008073D3600268536923F001035361202365
:1021200080F8423000234363036B012B33D100233B
:102130000363026802F10C0353E8003F23F010032D
:102140000C3242E800310029F3D103681A6812F01A
:10215000100F06D0002201921A6801925B68019369
:10216000019B818DFFF7AAFF002003B05DF804FBFF
:102170000269002AACD1826A03685B68C3F3080372
:102180001380836A02338362B1E703685B6803F0FC
:102190007F031370A8E7FFF787FFE5E7022070478A
:1021A0000020704730B583B0044602681368D068D9
:1021B000516913F00F0505D113F0200F02D010F074
:1021C000200F19D12DB111F0010119D110F4907F18
:1021D00016D1216B01297DD013F0800F03D010F0B0
:1021E000800F40F0188113F0400F03D010F0400F23
:1021F00040F0158103B030BD2046FFF760FFF9E7DE
:1022000013F0010F06D010F4807F03D0626C42F00F
:102210000102626413F0040F04D019B1626C42F041
:102220000202626413F0020F04D019B1626C42F032
:102230000402626413F0080F07D010F0200F00D1E1
:1022400019B1626C42F008026264626C002AD1D05B
:1022500013F0200F02D010F0200F29D123685B6902
:1022600003F04003626C12F0080F00D163B3204604
:10227000FFF734FE23685B6913F0400F20D022681B
:1022800002F1140353E8003F23F04003143242E804
:1022900000310029F3D1E36B73B1634A5A63E06BF9
:1022A000FFF7D6FC0028A5D0E06B436B9847A1E769
:1022B0002046FFF704FFD1E72046FFF7F6FE99E737
:1022C0002046FFF7F2FE95E72046FFF7EEFE0023DB
:1022D00063648FE713F0100F3FF47EAF10F0100F20
:1022E0003FF47AAF0023019313680193536801937D
:1022F000019B536913F0400F51D0E26B13685B6888
:102300009BB2002B3FF476AFA18D99427FF672AF5E
:10231000E3859369202B37D0226802F10C0353E840
:10232000003F23F480730C3242E800310029F3D1DE
:10233000226802F1140353E8003F23F00103143232
:1023400042E800310029F3D1226802F1140353E876
:10235000003F23F04003143242E800310029F3D15A
:10236000202384F8423000232363226802F10C0307
:1023700053E8003F23F010030C3242E800310029FB
:10238000F3D1E06BFFF740FC02236363A18DE38D83
:102390009BB2C91A89B22046FFF790FE2AE7A18DA9
:1023A000E38D9BB2C91A89B2E38D9BB2002B3FF437
:1023B00021AF00293FF41EAF226802F10C0353E85D
:1023C000003F23F490730C3242E800300028F3D130
:1023D000226802F1140353E8003F23F00103143292
:1023E00042E800300028F3D1202384F84230002353
:1023F0002363226802F10C0353E8003F23F010032B
:102400000C3242E800300028F3D1022363632046F7
:10241000FFF754FEEEE62046FFF78EFDEAE6204683
:10242000FFF735FEE6E600BFAD20000850B338B533
:10243000044603684CF6CC421A60036845F25552D4
:102440001A60036842685A60036882689A60FEF7FF
:1024500037FF05462368DA6812F0030F0DD0FEF748
:102460002FFF401B41F23C339842F3D92368DB68CD
:1024700013F0030FEED0032003E04AF6AA221A60FD
:10248000002038BD01207047704743684B609A6850
:102490008A60516099600861036801330360704786
:1024A0000369416882688A60416851605A68824263
:1024B00006D0002202611A68013A1A601868704753
:1024C00082685A60F5E70000084B1B681B6823B957
:1024D000074B4FF0FF321A607047044B1B68DB68F4
:1024E000DB685A68024B1A60704700BFAC010020DD
:1024F0001C060020F8B53A4B1B68002B69D1394BFC
:102500001D6801351D60C5B9374B1B681B6843B199
:102510004FF0500383F31188BFF36F8FBFF34F8FDA
:10252000FEE7314A1168314B186810601960304A73
:10253000136801331360FFF7C7FF2E4B1B68AB42D4
:102540003DD900272C4B1B68DB6A03EB83039A0001
:102550002A4B9B58012B00D90127294B1B68002BC4
:102560003CD001273AE001271F4B1B681B6843B38F
:102570001D4B1B68DB68DC6863689D4226D3261D03
:102580003046FFF78DFFA36A1BB104F11800FFF777
:1025900087FFE36A1B4A1268934201D9194A136004
:1025A00003EB83039A00314614481044FFF76DFF94
:1025B000E26A114B1B68DB6A9A42D4D2D4E7002747
:1025C000D2E70C4B4FF0FF321A60BBE7094A1360A9
:1025D000B8E70D4A13680133136000273846F8BD89
:1025E000140600202C060020AC010020B0010020C1
:1025F000200600201C060020A8010020B4010020B5
:102600003006002018060020240600201F4B1B68FF
:102610001BB11F4B01221A6070471D4B00221A602C
:102620001C4B1B6803EB83018A001B498A585AB96B
:102630000BB1013BF6E74FF0500383F31188BFF372
:102640006F8FBFF34F8FFEE703EB830082000A44D6
:1026500050684068506003EB830C4FEA8C020832EC
:10266000114488420BD003EB830291000A4A0A44CA
:102670005268D168094A1160064A13607047406881
:1026800062469100044A0A445060ECE714060020B8
:102690003006002018060020B4010020A801002008
:1026A000054B1B6833B1054B1B680BB1002070470D
:1026B00002207047012070472806002014060020E1
:1026C00008B54FF0E0231B69FFF7EAFF012800D1AE
:1026D00008BD00F03FF8FBE700000000000000002C
:1026E000074B19680868B0E8F00F80F30988BFF35A
:1026F0006F8F4FF0000080F311884EF00D0E704781
:10270000A801002000000000000000000000000000
:10271000EFF30980BFF36F8F0D4B1A6820E9F00FBC
:1027200010602DE908404FF0500080F31188FFF74A
:102730006DFF4FF0000080F31188BDE80840196874
:102740000868B0E8F00F80F30988BFF36F8F704717
:10275000A801002008B54FF0500383F31188BFF3A0
:102760006F8FBFF34F8FFFF7C5FE28B14FF0E02307
:102770004FF08052C3F8042D002383F3118808BD65
:10278000FFF782FE0B480C490C4A002302E0D458A4
:10279000C4500433C4188C42F9D3094A094C0023AD
:1027A00001E013600432A242FBD300F00FF8FDF702
:1027B00067FF7047000000200C0000208028000800
:1027C0000C00002034060020FEE7000070B5002653
:1027D0000C4D0D4C641BA410A64209D100F022F848
:1027E00000260A4D0A4C641BA410A64205D170BDF8
:1027F00055F8043B98470136EEE755F8043B9847F7
:102800000136F2E7782800087828000878280008C0
:102810007C28000803460244934200D1704703F825
:10282000011BF9E7F8B500BFF8BC08BC9E4670472D
:0C283000F8B500BFF8BC08BC9E4670471D
:10283C000000000004000000080000000C00000074
:10284C0002030405060708090A0B0C0D0E0F1010E5
:10285C00010200000000000000000000010203045F
:0C286C0006070809000000000102030438
:04287800350100081E
:04287C00110100083E
:0C288000010000001000000000127A00AF
:040000050800278147
:00000001FF
